:020000040800F2
:10000000000400205301000861010008630100089A
:100010006501000867010008690100080000000090
:100020000000000000000000000000006B0100085C
:100030006D010008000000006F0100087101000858
:1000400073010008730100087301000873010008C0
:1000500073010008730100087301000873010008B0
:10006000192100083F2100086B21000873010008D6
:100070007301000873010008730100087301000890
:100080007301000873010008730100087301000880
:1000900073010008730100087301000807220008BB
:1000A0007301000873010008730100087301000860
:1000B0007301000889220008730100087301000819
:1000C0007301000873010008730100087301000840
:1000D000730100083D1D0008B31D000873010008EE
:1000E0007301000873010008730100087301000820
:1000F0007301000873010008730100087301000810
:1001000073010008730100087301000873010008FF
:1001100073010008730100086123000873010008DF
:1001200073010008730100087301000873010008DF
:10013000DFF80CD005F0B4F800480047E7070008E6
:10014000380A002030BF72B662B680F30888704764
:10015000704708488047084981F3088807480047E6
:10016000FEE7FEE7FEE7FEE7FEE7FEE7FEE7FEE767
:10017000FEE7FEE751010008380A002031010008BF
:100180000146CA0A1046704710B51388F02B01DBF0
:10019000002313800B88B3F5A07F02DB00230B80C4
:1001A000921C891C1388782B10DA0B88A02B06DA96
:1001B0000388FC4C24682344FA4C236016E003882F
:1001C000F94C24682344F84C23600FE00B88A02BE3
:1001D00006DA0388F54C24682344F44C236005E0D8
:1001E0000388F34C24682344F14C236010BDEE4A8D
:1001F0001268EF4B1B681A44EA4B1B68D21AEB4B90
:100200001B68D21AEB4B1A60E74A1268E54B1B6871
:100210001A44E64B1B68D21AE54B1B68D21AE64B10
:100220001A60E44A1268002A07DAE24A1268524267
:10023000E04B1A6001220A7001E000220A70DA4ADB
:100240001268D84B1B681A44D84B1B681A44D84B09
:100250001B681A44D74B1B68B3FBF2F2D54B1A60EC
:10026000D54A1268002A07DAD34A12685242D24BA2
:100270001A600122027001E000220270CA4A12686C
:10028000C84B1B681A44C94B1B681A44C84B1B68EF
:100290001A44C94B1B68B3FBF2F2C74B1A60704794
:1002A00010B5C64A1268B2F5A07F07DB0022C34B27
:1002B0001A60C34A1268521CC14B1A60C04A1268C5
:1002C000F02A02DB0022BE4B1A600288BB4B1B687F
:1002D000A03BBC4C246802FB0342BA4B1A60028864
:1002E000B74B1B68783BB74C246802FB0342B54B05
:1002F0001A6003880A681A440A60B04A1268521CDD
:10030000AE4B1A6010BD10B5AE4B1B6847F23054AF
:10031000A34207DAAB4B1B686442A34202DD002311
:10032000A84C2360A74B1B6847F23054A34207DA5E
:10033000A44B1B686442A34202DD0023A14C23604E
:10034000A04B1B689B4C23609E4B1B689A4C236000
:10035000984B1B68002B07DA964B1B685B42954C49
:10036000236001230B7001E000230B70914C136894
:100370002468B4FBF3F38F4C23608F4B1B68002B76
:1003800007DA8D4B1B685B428B4C236001230370A3
:1003900001E000230370884C13682468B4FBF3F376
:1003A000854C23600023874C23602360136010BDBD
:1003B0002DE9FC4704460D4616461F4600203880AE
:1003C00030807B4908607949086076490860764941
:1003D00008607C490860086001907B49087000BF94
:1003E000794800780228FBD17748007802287ED12E
:1003F000042002F020F90021084602F02FF802F054
:1004000010F80020714908607149C1F8B8017149BC
:100410000860012008600020086001206B49091F66
:1004200008606C4908604FF0000830E0002069491E
:1004300008606948806800F0FF0901206749C1F839
:1004400090014FEA09290020C1F8900162488068B4
:10045000C0B240EA09090120C1F890014FF0D8402C
:10046000A0F800984846FFF78BFE0090BDF800000A
:100470000B2801DC002000903A4631466846FFF721
:1004800083FE01A96846FFF70BFF08F10108B8F5E4
:10049000963FCBD344480068B0F57A7F17D24148E5
:1004A0000068B0F57A7F12D240480068B0F57A7FD4
:1004B0000DD23F480068B0F57A7F08D200203C4951
:1004C00008603A490860374908603749086001AA5E
:1004D00029462046FFF717FF4FF480704049086017
:1004E00040480078401C3F490870002000E001E0CF
:1004F00002F0A1F8BDE8FC872DE9F04F91B0044669
:100500000D4616461F46202107A804F0A2FD2948E3
:100510000068022845DC284800680228FADC308898
:1005200010B9388800283CD04FF4FC602E49088070
:100530002EA31022CDE900231346C82264212620D1
:1005400004F047F92FA31022CDE900231346C82257
:1005500078211E2004F03DF917E00D202F49088076
:1005600000BF2E48001F008810F0400FF9D00A206D
:100570002A49088000BF2948001F008810F0400F5A
:10058000F9D04FF4C87001F03CFA2548008810F407
:10059000004FE2D022480088C0F30D0800201090E0
:1005A00051E01DE1040000200000002008000020B0
:1005B0000C0000201000002014000020200000206B
:1005C000240000201800002035000020BC01244237
:1005D000000024429081214200100140008021420D
:1005E000140401403A0000203C00002053706F7456
:1005F0002063656E74657220696E20434D4F532DE4
:1006000032000000656D756C73696F6E20636F6FEB
:100610007264696E61746573203A0000044400409E
:100620002E000020FF481099405C3038FE49109A97
:10063000885400BFFD48008810F0400FFAD0109891
:10064000401CC0B2109010984045EBDBF64890F883
:10065000009040784FF47A714843F349897801EB70
:10066000C10202EB011100EB8100EF49C97801EBF7
:10067000810100EB4100EC49097900EB010BEA48EC
:1006800090F805A080794FF47A714843E649C9791A
:1006900001EBC10202EB011100EB8100E249097A92
:1006A00001EB810100EB4100DF49497A08440F90DA
:1006B0001023009306235A46A021732003F0D6FF8F
:1006C000B9F1010F0DD1BBF1000F0ADDD8A3102243
:1006D000CDE9002313463222A0215A2004F079F8F4
:1006E00009E0D5A31022CDE9002313463222A02130
:1006F0005A2004F06EF8102300930623B4217320CF
:100700000F9A03F0B3FFBAF1010F0DD10F98002833
:100710000ADDCBA31022CDE9002313463722B421F2
:100720005A2004F056F809E0C7A31022CDE90023AF
:1007300013463222B4215A2004F04BF8032001F072
:1007400060F90020C2490880012001F05AF90F9B8E
:10075000C048CDE903BACDF8089005932278036824
:10076000CDE900232A78BC48BCA1036807A804F09F
:10077000B9FD07A9C3A004F0A5FDB9F1010F08D187
:10078000BBF57A7F05DBC8220321012004F01AFCA7
:100790001CE0B9F1010F08D1BBF1C80F05DB322213
:1007A0000321012004F00EFC10E0BBF57A7F05DB8D
:1007B000C8220321002004F005FC07E0BBF1C80FAC
:1007C00004DB32220321002004F0FCFB4FF47A709A
:1007D00001F017F93B46324629462046FFF7E8FD6F
:1007E00011B0BDE8F08F2DE9F04786B000200590EC
:1007F0000490002400274FF001084FF001094FF04A
:10080000010A092001F032FA4FF461222421482024
:1008100001F00AFB482001F0C3F802F0D0F801F023
:10082000EBFB04F03BFB41F61F41642001F074FD3B
:1008300004F0B2FB04F00CF80021934801F080F8BA
:1008400092488088A0F5D041043905D1F0208F4925
:1008500008804FF4A07048804FF478408C4908809D
:100860008CA31022CDE900231346C8221E21282084
:1008700003F0AFFF89A31022CDE900231346C8225D
:100880003C21282003F0A5FF6AA31022CDE9002314
:100890001346C8225A21282003F09BFF80A3102270
:1008A000CDE900231346C8221E21822003F091FFC8
:1008B0007AA31022CDE900231346C8223C218220CE
:1008C00003F087FF5BA31022CDE900231346C82263
:1008D0005A21822003F07DFF73A31022CDE900236B
:1008E0001346C8228221282003F073FF6BA3102235
:1008F000CDE900231346C822A021282003F069FF78
:100900004CA31022CDE900231346C822BE21282083
:1009100003F05FFF67A31022CDE900231346C8222E
:100920008221084603F055FF5CA31022CDE9002385
:100930001346C822A021822003F04BFF3DA31022C2
:10094000CDE900231346C822BE21822003F041FFD7
:100950005BA31022CDE900231346C822E6213C20E8
:1009600003F037FF58A31022CDE900231346C82215
:100970004FF482713C2003F02CFF1F204449088073
:100980005023622236211E2003F03EFD4FF6FF70F9
:100990003F4908806E23622254211E2003F034FD5B
:1009A000B42362229A211E2003F02EFDD22362225C
:1009B000B8211E2003F028FD5023BC2236217820C8
:1009C00003F022FD6E23BC225421782003F01CFD8D
:1009D000B423BC229A21782003F016FDD223BC2236
:1009E000B821782003F010FDFA236222E0211E20B6
:1009F00003F00AFD4FF48C736222FE211E2003F0E7
:100A000003FDE6E3002001F026FB0646002E08D099
:100A1000012E79D0022E62D0032E59D0042EFFD1A0
:100A200007E1D3E3600100204000002000440040C3
:100A300053313A202D00000053313A2020000000AD
:100A400053323A202D00000053323A20200000009B
:100A50002E000020140000201000002053544D25CB
:100A60006C642530346C64256C642530346C6425EA
:100A70006C642530346C64256C642530346C640AF5
:100A800000000000257300007400002028020020F0
:100A90003C0000204D6F746F723100002B0000008D
:100AA0004D6F746F72320000536C696465776179C1
:100AB00031000000536C6964657761793200000091
:100AC00053484F57000000004154554F00000000AC
:100AD000002F02DD781EC7B200E00927A9E01F2021
:100AE000FF4908808FB905220021084604F06AFA00
:100AF000AFF244031022CDE900231346C822FA21A5
:100B00003C2003F066FE8CE08CE0012F10D1052222
:100B10000021012004F056FAAFF260031022CDE963
:100B200000231346C822FA213C2003F052FE78E04D
:100B3000022F0FD105220121002004F043FAE9A37E
:100B40001022CDE900231346C822FA213C2003F0ED
:100B500040FE66E0032F0FD105220121084604F074
:100B600031FAE1A31022CDE900231346C822FA216D
:100B70003C2003F02EFE54E0042F0FD1642202210A
:100B8000002004F01FFAD9A31022CDE90023134658
:100B9000C822FA213C2003F01CFE42E0052F0FD1B1
:100BA00064220221012004F00DFAD1A31022CDE924
:100BB00000231346C822FA213C2003F00AFE30E04D
:100BC000062F0FD164220321002004F0FBF9C9A3F2
:100BD0001022CDE900231346C822FA213C2003F05D
:100BE000F8FD1EE0072F0FD164220321012004F03D
:100BF000E9F9C1A31022CDE900231346C822FA2146
:100C00003C2003F0E6FD0CE0082F04D14FF0000873
:100C10004FF0000A05E0092F03D14FF000084FF014
:100C2000000906E0092F02DA781CC7B200E00027AD
:100C300000BF00BF002F43D11F20A94908805023C7
:100C4000622236211E2003F0DFFB4FF6FF70A4491D
:100C500008806E23622254211E2003F0D5FBB423AA
:100C600062229A211E2003F0CFFBD2236222B821F8
:100C70001E2003F0C9FB5023BC223621782003F04C
:100C8000C3FB6E23BC225421782003F0BDFBB423A8
:100C9000BC229A21782003F0B7FBD223BC22B821D2
:100CA000782003F0B1FBFA236222E0211E2003F03A
:100CB000ABFB4FF48C736222FE211E2003F0A4FBD9
:100CC000012F43D11F20864908806E2362225421C0
:100CD0001E2003F099FB4FF6FF70814908805023D6
:100CE000622236211E2003F08FFBB42362229A2158
:100CF0001E2003F089FBD2236222B8211E2003F0BC
:100D000083FB5023BC223621782003F07DFB6E2329
:100D1000BC225421782003F077FBB423BC229A2113
:100D2000782003F071FBD223BC22B821782003F095
:100D30006BFBFA236222E0211E2003F065FB4FF4D7
:100D40008C736222FE211E2003F05EFB022F43D132
:100D50001F20634908805023BC223621782003F0ED
:100D600053FB4FF6FF705E49088050236222362104
:100D70001E2003F049FB6E23622254211E2003F043
:100D800043FBB42362229A211E2003F03DFBD223B1
:100D90006222B8211E2003F037FB6E23BC225421AF
:100DA000782003F031FBB423BC229A21782003F091
:100DB0002BFBD223BC22B821782003F025FBFA2399
:100DC0006222E0211E2003F01FFB4FF48C7362228D
:100DD000FE211E2003F018FB032F43D11F204049A2
:100DE00008806E23BC225421782003F00DFB4FF6BF
:100DF000FF703B4908805023622236211E2003F0F9
:100E000003FB6E23622254211E2003F0FDFAB4235B
:100E100062229A211E2003F0F7FAD2236222B8211F
:100E20001E2003F0F1FA5023BC223621782003F073
:100E3000EBFAB423BC229A21782003F0E5FAD223FE
:100E4000BC22B821782003F0DFFAFA236222E021E5
:100E50001E2003F0D9FA4FF48C736222FE211E206B
:100E600003F0D2FA042F52D11F201D490880B42369
:100E700062229A211E2003F0C7FA4FF6FF7018492C
:100E800008805023622236211E2003F0BDFA6E2313
:100E9000622254211E2003F0B7FAD2236222B82125
:100EA0001E2003F0B1FA5023BC223621782003F033
:100EB000ABFA6E23BC225421782003F0A5FAB423A8
:100EC000BC229A21782003F09FFAD223BC22B821B9
:100ED000782003F099FAFA236222E0211E200DE027
:100EE0003C0000203300000034000000350000000A
:100EF00036000000370000003800000003F084FADC
:100F00004FF48C736222FE211E2003F07DFA052F20
:100F100043D11F20FF490880D2236222B8211E201E
:100F200003F072FA4FF6FF70FA49088050236222EC
:100F300036211E2003F068FA6E23622254211E20FF
:100F400003F062FAB42362229A211E2003F05CFAB5
:100F50005023BC223621782003F056FA6E23BC229F
:100F60005421782003F050FAB423BC229A2178202F
:100F700003F04AFAD223BC22B821782003F044FAC5
:100F8000FA236222E0211E2003F03EFA4FF48C7314
:100F90006222FE211E2003F037FA062F43D11F20C4
:100FA000DC490880B423BC229A21782003F02CFA73
:100FB0004FF6FF70D74908805023622236211E2049
:100FC00003F022FA6E23622254211E2003F01CFA41
:100FD000B42362229A211E2003F016FAD223622241
:100FE000B8211E2003F010FA5023BC2236217820AD
:100FF00003F00AFA6E23BC225421782003F004FA8D
:10100000D223BC22B821782003F0FEF9FA23622211
:10101000E0211E2003F0F8F94FF48C736222FE21C8
:101020001E2003F0F1F9072F43D11F20B949088092
:10103000D223BC22B821782003F0E6F94FF6FF70E6
:10104000B44908805023622236211E2003F0DCF9C7
:101050006E23622254211E2003F0D6F9B4236222AB
:101060009A211E2003F0D0F9D2236222B8211E203B
:1010700003F0CAF95023BC223621782003F0C4F9CA
:101080006E23BC225421782003F0BEF9B423BC2285
:101090009A21782003F0B8F9FA236222E0211E2079
:1010A00003F0B2F94FF48C736222FE211E2003F08C
:1010B000ABF9082F43D11F2096490880FA236222FA
:1010C000E0211E2003F0A0F94FF6FF70914908803F
:1010D0005023622236211E2003F096F96E236222ED
:1010E00054211E2003F090F9B42362229A211E207D
:1010F00003F08AF9D2236222B8211E2003F084F97A
:101100005023BC223621782003F07EF96E23BC22C6
:101110005421782003F078F9B423BC229A21782056
:1011200003F072F9D223BC22B821782003F06CF9C5
:101130004FF48C736222FE211E2003F065F9092F03
:1011400047D11F20734908804FF48C736222FE211F
:101150001E2003F059F94FF6FF706E4908805023A6
:10116000622236211E2003F04FF96E2362225421A1
:101170001E2003F049F9B42362229A211E2003F0B5
:1011800043F9D2236222B8211E2003F03DF95023F7
:10119000BC223621782003F037F96E23BC2254217B
:1011A000782003F031F9B423BC229A21782003F08F
:1011B0002BF9D223BC22B821782003F025F9FA2399
:1011C0006222E0211E2003F01FF902E00A2000F055
:1011D00018FCB8F1000F7FF415AC4FF6FF7001F06A
:1011E000D9FB4FF478404B49088018E04AA31022FD
:1011F000CDE900231346C82211463C2003F0E9FA4A
:10120000C82000F0FEFB4FF6FF730093F623EF2299
:10121000E6213C2003F037F8C82000F0F2FB03F091
:1012200017FB0028E2D140A31022CDE9002313468A
:10123000C82211463C2003F0CCFA40F2DC5000F00A
:10124000E0FB41F61F4142F2107001F098F800F007
:10125000FFFF4FF4A073F022AE210A2003F06FFCD1
:1012600000203549086085E104AB05AA02A903A85E
:10127000FFF79EF831480068314988420BD2314867
:101280000068884207D230480068884203D22F485D
:101290000068884204D301254FF4784001F07AFBBE
:1012A00084E04FF478401B49088029A31022CDE93F
:1012B00000231346C82278214B2003F08AFA27A383
:1012C0001022CDE900231346C8228C21322003F0DE
:1012D00080FA27A31022CDE900231346C822A021BB
:1012E000322003F076FA27A31022CDE9002313461B
:1012F000C822B421322003F06CFA04AB05AA02A97B
:1013000003A8FFF755F80D4800680D4988424DD2F3
:101310000C483FE03C0000204F5637363730204520
:1013200072726F72212100004F56373637302049D4
:101330006E6974204F4B0000BC0124420000002065
:10134000B000090004000020080000200C0000206C
:101350006F766572666C6F7721210000506C656155
:10136000736520736D616C6C206C61736572000035
:10137000696E74656E7369747920746F2061766F1D
:101380006964000064616D6167696E6720434D4F59
:10139000530000000068884208D2FA48006888427A
:1013A00004D2F948006808B100BF0025002D7FF481
:1013B00078AF1423D2221946B42002F0C1FFF3A360
:1013C0001022CDE900231346C8221421DC2003F0AB
:1013D00000FA3223B4221421104602F0B1FFECA32C
:1013E0001022CDE900231346C8223C21B42003F08B
:1013F000F0F91F20E7490880E7A31022CDE9002378
:101400001346C8226421262003F0E3F9AFF60C63EB
:101410001022CDE900231346C82278211E2003F0B4
:10142000D8F94FF47840DB49088010230093042357
:10143000DE48A0210268732003F018F99DF8080027
:1014400001280ED1D948006801280ADBD8A3102250
:10145000CDE9002313463222A0215A2003F0B9F926
:1014600009E0D5A31022CDE9002313463222A021A2
:101470005A2003F0AEF9102300930423D048B4217E
:101480000268732003F0F2F89DF80C0001280ED1D9
:10149000CB48006801280ADBCAA31022CDE900234B
:1014A00013463722B4215A2003F093F909E0C7A369
:1014B0001022CDE9002313463222B4215A2003F032
:1014C00088F9102300930623C248C82102687320BC
:1014D00003F0CCF8102300930623AA48DC2102680D
:1014E000732003F0C3F8102300930623BA484FF487
:1014F00082710268732003F0B9F810230093062369
:10150000A148F0210268732003F0B0F81023009383
:101510000823A6484FF48C710268322003F0A6F825
:10152000102300930823A6484FF48C71026873209F
:1015300003F09CF81023A74800930068A6490968A7
:1015400008449049096808448F49096842180723EC
:101550004FF49671732003F089F8601CC4B2052C17
:1015600008D100249D48006808B9012000E000204F
:101570009A490860B9F1000F7FF476AEC9E104AB77
:1015800005AA02A903A8FEF713FF92480068944930
:1015900088420BD290480068884207D27948006898
:1015A000884203D278480068884204D301254FF46A
:1015B000784001F0EFF947E04FF478407549088032
:1015C000AFF274231022CDE900231346C8227821FC
:1015D0004B2003F0FEF8AFF27C231022CDE900236C
:1015E0001346C8228C21322003F0F3F8AFF2802397
:1015F0001022CDE900231346C822A021322003F097
:10160000E8F8AFF280231022CDE900231346C82268
:10161000B421322003F0DDF804AB05AA02A903A827
:10162000FEF7C6FE6B4800686D4988420CD26A48D6
:101630000068884208D253480068884204D2524861
:10164000006808B100BF0025002DB5D11423D222B7
:101650001946B42002F074FE4CA31022CDE90023F9
:101660001346C8221421DC2003F0B3F83223B4223D
:101670001421104602F064FE45A31022CDE9002398
:101680001346C8223C21B42003F0A3F804AB05AAFA
:1016900002A903A8FEF730FF4FF478403D490880C7
:1016A0001023009304234148A0210268732002F014
:1016B000DDFF9DF8080001280ED13C480068012894
:1016C0000ADB3BA31022CDE9002313463222A021DE
:1016D0005A2003F07EF809E037A31022CDE9002359
:1016E00013463222A0215A2003F073F89DF8080017
:1016F000012809D12D4800680A2805DB03220121B1
:10170000084603F05FFC20E09DF80800012809D19D
:1017100026480068022805DB01221146104603F026
:1017200051FC12E0214800680A2805DB0322012150
:10173000002003F047FC08E01C480068022804DB96
:1017400001221146002003F03DFC102300930423E6
:101750001B48B4210268732002F088FF9DF80C003A
:1017600001283FD11648006801283BDB15A3102251
:10177000CDE9002313463722B4215A2003F029F87B
:101780003BE00000080000200C000020792B000046
:10179000782B00003C00002053706F742063656E4E
:1017A00074657220696E20434D4F53001000002075
:1017B000583A202D00000000583A20200000000078
:1017C00014000020593A202D00000000593A202032
:1017D000000000000000002004000020948121424D
:1017E000B0000900AFF21C031022CDE9002313461C
:1017F0003222B4215A2002F0ECFF9DF80C0001289F
:1018000009D1484800680A2805DB03220021084660
:1018100003F0D8FB20E09DF80C00012809D14148D5
:101820000068022805DB01220021084603F0CAFBFC
:1018300012E03C4800680A2805DB03220021012051
:1018400003F0C0FB08E037480068022804DB0122EF
:101850000021104603F0B6FB102300930623324804
:10186000C8210268732002F001FF102300930623B1
:101870002E48DC210268732002F0F8FE102300934A
:1018800006232B48F0210268732002F0EFFE10239C
:101890000093062327484FF482710268732002F0F8
:1018A000E5FE10230093082323484FF48C7102684F
:1018B000322002F0DBFE10230093082319484FF476
:1018C0008C710268732002F0D1FE10231648009339
:1018D000006816490968084415490968084415490B
:1018E0000968421807234FF49671732002F0BEFE78
:1018F0004FF47A7000F085F8601CC4B2052C08D152
:1019000000240E48006808B9012000E000200B49BF
:101910000860BAF1000F7FF432AE002006B0BDE8D7
:10192000F0870000140000200000002004000020C8
:10193000080000200C0000201000002094812142AB
:1019400070B505460C462421284603F082FB08208A
:1019500068600620A8600020E8602C60E8612862CA
:1019600070BD30B502461068431A90691844906102
:1019700010691C1A10695061136150685843106255
:101980000A25106A90FBF5F01062D2E90705284499
:10199000D061106A30BD0FB4079804B070470000E2
:1019A0004FF0E021096921F004014FF0E0221161BC
:1019B0000146C21700EB5272D2101F4B1A70194623
:1019C00009784FF47A7251439A1C118070471A4A71
:1019D000127842434FF0E0235A6100229A610122BB
:1019E0001A6100BF4FF0E022116911F0010F02D01F
:1019F00011F4803FF6D000224FF0E0231A619A6183
:101A000070470D4A921C128842434FF0E0235A61FE
:101A100000229A6101221A6100BF4FF0E022116991
:101A200011F0010F02D011F4803FF6D000224FF0E8
:101A3000E0231A619A61704728000020AC4A0A40EE
:101A40000243AC4B1A607047072323EA00021202DC
:101A5000A84B1B1D19684FF6FF031940A64B1943ED
:101A600011434FF0E023C3F80C1D70472DE9F047F8
:101A700004460D4616461F463046F11706EB917197
:101A80004FEAA109F11706EB91718910A6EB8101CC
:101A900001F0FF0A042101EBCA0000F0FF0A3846FA
:101AA000FFF7D2FFC7F1040004FA00F80F20384115
:101AB000284040EA080808F00F08202E09DA8F486D
:101AC00000680121B14008434FF0E021C1F8000156
:101AD0000BE08A48001D0168A6F120020120904019
:101AE00001434FF0E020C0F80411854850F8290068
:101AF00008FA0AF10143824840F82910BDE8F0874E
:101B000070B50D46CE1701EB9676B310CE1701EBEC
:101B10009676B610A1EB8606B606340E794DAD6901
:101B200045F00105774EB5614FEAB63555F82360AB
:101B30000F25A540AE43744D45F8236055F823505A
:101B400000FA04F63543704E46F823506F4D2E6868
:101B500001258D402E436C4D083DC5F8006412F000
:101B6000010F09D0694D0C352E6801258D402E439B
:101B7000654D083DC5F80C6412F0020F09D0634DA5
:101B800008352E6801258D402E435F4D083DC5F870
:101B9000086470BD00B500205A490861C86014206F
:101BA000486100208861C8610846006840F0010073
:101BB000086008464068564908405249486008464F
:101BC0000068544908404F4908600846006820F4FE
:101BD000802008600846406820F4FE00486000202D
:101BE000886000214FF00060FFF728FF00BD10B5AE
:101BF00040480830006840F004004FF0E021C1F890
:101C0000100D4048C06940F080503E49C8614248CC
:101C1000406840F48070404948600846006840F0E1
:101C2000040008600846006840F002000860FEF703
:101C300089FA10BD3048001D2E49091D0860704703
:101C40000146084649062F4A926942F001022D4B8F
:101C50009A612D4A083A526822F0E0622A4B083B0A
:101C60005A601A4652680A435A60704730B50446B3
:101C70000025FFF78FFF2348006840F4803021499A
:101C8000086000BF1F480068400CFBD04FF4806024
:101C90001C494860A01EC4B20846406840EA84401F
:101CA00048600846406840F4803048601B4800683F
:101CB00040F03200194908601248006840F0807016
:101CC0001049086000BF0F480068400EFBD00D4867
:101CD000406840F002000B49486005E00948406850
:101CE000C0F3870505F00305022DF7D130BD0000D4
:101CF00080FFFF1F08ED00E00000FA0500E100E0B2
:101D000000E400E00010024008000140000401402F
:101D10000000FFF8FFFFF6FE0070004000200240C8
:101D2000014600BF704700BFA84A128812F0400F5A
:101D3000FAD0C2B2A54B1B1D1A807047A34909886F
:101D400011F0200F34D0A149091D0988C8B2A0495B
:101D5000098811F4004F2BD19D49098811F4804F57
:101D60000CD00A2803D00021994A118020E098491C
:101D7000098841F40041964A118019E00D2806D1E6
:101D80009349098841F48041914A118010E09049BB
:101D90000988C1F30D018F4A50548D490988491CA7
:101DA0008B4A118011460988C72901DD0021118065
:101DB00070478949098811F0200F34D08649091DE0
:101DC0000988C8B28549098811F4004F2BD183498D
:101DD000098811F4804F0CD00A2803D000217F4AD3
:101DE000118020E07D49098841F400417B4A11803F
:101DF00019E00D2806D17949098841F48041774AD4
:101E0000118010E075490988C1F30D01744A5054DE
:101E100072490988491C714A118011460988C729ED
:101E200001DD0021118070472DE9F84F04460D4671
:101E30001646300103F0D6F982466A4904FB01F0E8
:101E400003F0D0F98346514603F096F90746384629
:101E500003F0CDF91FFA80F8404603F0C3F9394684
:101E6000009003F04DF983464FF0834103F051F9A0
:101E7000824603F0BCF981464FEA081808EB0900D6
:101E80001FFA80F85848806940F00400564988617C
:101E90000846806940F4804088615448006820F416
:101EA0007F605349C1F804080846D0F8040840F49C
:101EB0000B60C1F804084C48C06840F480404A49AF
:101EC000C8600846C06820F48040C8604948A0F84F
:101ED00008883E480C30008842F20C01084345490E
:101EE000A1F80C080846B0F80C0840F02000A1F852
:101EF0000C080223252203210846FFF7B7FD300115
:101F000003F070F98246374905FB01F003F06AF9E6
:101F10008346514603F030F90746384603F067F927
:101F20001FFA80F8404603F05DF93946009003F04F
:101F3000E7F883464FF0834103F0EBF8824603F065
:101F400056F981464FEA081808EB09001FFA80F895
:101F50002548C06940F400302349C8612448D0F8BE
:101F6000000820F47F402249C1F800080846D0F854
:101F7000000840F40B40C1F800081B48006940F419
:101F80000030194908610846006920F400300861F2
:101F90004FF04020A0F808840F480C30008842F22F
:101FA0000C0108434FF04021A1F80C040846B0F89A
:101FB0000C0440F02000A1F80C0401232622032188
:101FC0000846FFF753FDBDE8F88F000000380140D8
:101FD0002C00002098000020004400402E0000202B
:101FE0006001002040420F00001002400408014040
:101FF00000000140003001403D48806940F004008D
:102000003B4988610846806940F040008861394852
:10201000006820F00F003849C1F800080846D0F8E1
:10202000000840F00800C1F800083448006834494E
:1020300008403449C1F80008304800683249084374
:102040003049C1F800080846D0F80C0840F01C00E0
:10205000C1F80C08704710B5044614B101202B4993
:1020600008702A48007800282BD02948006858B109
:102070002748001F006838B125480838006818B1A3
:102080002448006801281CD10A20FFF7BAFC002070
:102090001E4908701E48006808B9012010BD1C4880
:1020A000001F006808B90220F8E7194808380068DE
:1020B00008B90320F2E717480068012815D1042069
:1020C000ECE71348006801280FD11148001F006891
:1020D00001280AD10E4808380068012805D10D48AA
:1020E000006810B90120094908700020D6E70000F7
:1020F00000100240000801400000014000180140AB
:10210000FF00F0FF001001400088080034000020AC
:10211000100123420001214210B50A20FFF771FC93
:102120005248006838B95248006808B9012000E0F8
:1021300000204F49086004204E49086010BD10B5CA
:102140000A20FFF75EFC4948001D006848B947486F
:102150008C30006808B9012000E0002043498C3130
:10216000086008204349086010BD10B50A20FFF739
:1021700048FC3E480830006888B93D48006808B906
:10218000012000E000203A4908603B48D0F8940163
:1021900008B9012000E0002034498C31086010208B
:1021A0003449086010BD10B5FFF726FF0222002158
:1021B0000846FFF7A5FC012202210420FFF7A0FC3E
:1021C000012203210420FFF79BFC01220421084681
:1021D000FFF796FC0223062203211846FFF746FC70
:1021E0000223082219461846FFF740FC0223092261
:1021F00001211846FFF73AFC02230A220021184663
:10220000FFF734FC10BD1B48006810F4807F1AD023
:102210001A480078022816DA1848007850B90020C9
:102220001749086001201749C1F898011049083979
:10223000086003E000200E49083908600F48007864
:10224000401C0E4908704FF480700A4908607047BE
:1022500010B5022208210020FFF752FC02231722AA
:1022600000210846FFF702FC10BD000008012342D0
:1022700094812142140401400000234235000020D3
:1022800098812242008022424B48008810F0010FC2
:1022900039D04A48007850B149480068C04349499C
:1022A000C1F8900145480078401E444908704648EE
:1022B000007858B1424808300068C0434149C1F82D
:1022C000980141480078401E3F4908703F48007817
:1022D00050B13F480068C0433E49C1F8B4013B4893
:1022E0000078401E394908703B48007858B138489A
:1022F000001D0068C0433749C1F8B801364800786E
:10230000401E354908702C48008820F001004FF02D
:102310008041A1F81004704770B504460D462F485F
:10232000C06940F002002D49C86123481C30048078
:102330008804A0F82854B0F80C0440F00100890487
:10234000A1F80C040846B0F8000440F00100A1F820
:10235000000402231D2203210120FFF787FB70BD2B
:102360001F48008A10F0010F02D000201D4908709C
:102370001B48008A20F0010019490882704770B597
:1023800004460D461548C06940F010001349C86165
:10239000134884850585808940F0010010498881B3
:1023A0000846008840F001000880022336220321FD
:1023B0000120FFF75BFB70BD1004004036000020D9
:1023C0009001214200002142370000203800002007
:1023D000B4812142008021423900002000100240D7
:1023E000001000403A000020F94908807047F84981
:1023F000891C08807047F648801C00887047F44AA2
:1024000010804FF0D842A2F80018704710B504466B
:102410002046FFF7E9FF0520FFF7D9FAFFF7EBFFAA
:1024200010BDEC48C079EA4908807047E849891C2A
:102430000880704730B5014601F01F04C1F3451311
:10244000CA0AE50205EB43151544A8B230BD00BF2A
:102450000100A0F10102D0B2FAD1704710B50346D5
:102460000C46DC488088A0F51341413905D0D94895
:102470008088A0F5D041043914D1D649087AFFF7F5
:10248000B3FF1812FFF7B3FFD8B2FFF7B0FFD1497F
:10249000487AFFF7A9FF2012FFF7A9FFE0B2FFF784
:1024A000A6FF12E0CB488079012804D1C9480088F2
:1024B000401EC01A83B2C749087A1946FFF79FFF2A
:1024C000C449487A2146FFF79AFF10BD2DE9F04133
:1024D00004460D4600260027B046BE480088A042AC
:1024E00003DDBC484088A84202DC0020BDE8F08142
:1024F00029462046FFF7B2FFB6488088A0F5134171
:10250000413905D0B3488088A0F5D041043903D1C2
:102510002E20FFF769FF02E02220FFF765FFAD489C
:102520008088A0F51341203902D10220FFF78FFFE8
:10253000A748801C008800B100260220FFF787FF13
:10254000A348801C0688A3488088A0F51341413920
:1025500009D10220FFF77BFF9D48801CB0F8008066
:10256000F7B23F0208E09B488088A0F5D0410439CB
:1025700002D19748801C068896488088A0F51341B0
:10258000253917D093488088A0F58A41353911D074
:1025900090488088A0F58A4131390BD08D488088D9
:1025A000A0F50941893905D08A488088A0F53541D0
:1025B000053901D1304699E786488088A0F5134156
:1025C000413907D1F012C002B91240EA411040EA85
:1025D000E8208BE73046FFF72DFF87E700B57D4801
:1025E0008088A0F51341413905D07A488088A0F54C
:1025F000D041043903D12920FFF7F6FE04E040F270
:1026000073110720FFF7FBFE00BD00B571488088FD
:10261000A0F51341413905D06E488088A0F5D0411E
:10262000043903D12820FFF7DFFE03E00021072053
:10263000FFF7E5FE00BD70B50346002400256548A0
:10264000807901281ED163488088A0F5D0410439E3
:1026500018D0082B15D2DFE803F00406080A0C0E88
:10266000101206230DE007230BE0042309E00523E5
:1026700007E0012305E0002303E0032301E0022338
:1026800000BF00BF53488088A0F51341413905D0F1
:1026900050488088A0F5D04104397CD1082B1CD249
:1026A000DFE803F00406090C0F12151800BF14E050
:1026B00044F0800411E044F040040EE044F0C00413
:1026C0000BE044F0200408E044F0600405E044F02E
:1026D000A00402E044F0E00400BF00BF362544F04F
:1026E00008043C488088A0F5D041043901D144F069
:1026F000020421462846FFF782FE14F0200F0DD079
:102700003448008833494988884214DA31480688B9
:10271000408830490880084646800CE02D480088F3
:102720002C494988884206DD2A480688408829497C
:102730000880084646802749087AFFF755FE0020A2
:10274000FFF755FE0020FFF752FE22490988491E77
:10275000C1F30F20FFF74BFE1E490988491EC8B27E
:10276000FFF745FE1B49487AFFF73EFE0020FFF7C2
:102770003EFE0020FFF73BFE16494988491EC1F383
:102780000F20FFF734FE13494988491EC8B2FFF7EE
:102790002EFE37E0FFE7082B21D2DFE803F0040725
:1027A0000A0D0F12151D44F0300418E044F0100417
:1027B00015E044F0200412E000BF10E044F03804BB
:1027C0000DE044F028040AE044F0180407E000009B
:1027D000FE07006C2802002044F0080400BF00BF80
:1027E000FF488088A0F50941893904D1112546F2B6
:1027F0004000044302E0032544F480542146284667
:10280000FFF7FDFD70BD30B504460D462946204654
:10281000FFF724FEFFF705FEF2480088F249088022
:1028200030BD30B503460C461546ED488088A0F50E
:102830001341413905D0EA488088A0F5D0410439D8
:1028400014D1E749087AFFF7CFFD1812FFF7CFFD43
:10285000D8B2FFF7CCFDE249487AFFF7C5FD201258
:10286000FFF7C5FDE0B2FFF7C2FD12E0DC4880795A
:10287000012804D1DA480088401EC01A83B2D84922
:10288000087A1946FFF7BBFDD549487A2146FFF77C
:10289000B6FDD348C079D449891E08804FF0D8408E
:1028A000A0F8005830BD10B50446002C3DD1CC49ED
:1028B0008871F02008804FF4A07048800846808816
:1028C000A0F51341413905D0C5488088A0F5D04115
:1028D000043914D12C20C249C8712A2008722B2037
:1028E000487208468088A0F5D04104394ED14FF493
:1028F000A070BB4908804FF4F070488046E0B848AB
:102900008088A0F50941893907D12220B449C871CE
:102910004E2008724F20487238E02220B049C8711A
:10292000202008722120487230E0AD488088A0F550
:10293000D04104392AD00120A94988714FF4A070F0
:102940000880F020488008468088A0F5134141396E
:1029500007D12C20A249C8712A2008722B20487266
:1029600014E09F488088A0F50941893907D12220C9
:102970009B49C8714F2008724E20487206E0222001
:102980009749C87121200872202048720020FFF763
:1029900052FE10BD70B50446002691480588408857
:1029A000454300210846FFF759FDFFF73AFD00BFF8
:1029B00002E08D480480761CAE42FAD370BD10B59B
:1029C0008A48406940F480708849486108468069B7
:1029D00040F0080088610846806940F02000886166
:1029E0000846806940F0400088610846806940F4EC
:1029F000807088617E48006820F00F007D49C1F832
:102A0000000C0846D0F8000C40F00300C1F8000CA0
:102A100079480068794908407949C1F80404764842
:102A20000068784908437649C1F804040846D0F89C
:102A3000000400F0FF20C1F800040846D0F80004AC
:102A400040F0BB10C1F800040846D0F8040800208C
:102A5000C1F804080846D0F8040840F0BB30C1F8BB
:102A600004080846D0F8000820F07040C1F80008BB
:102A70000846D0F8000840F03040C1F8000862482D
:102A8000406820F47020604948600846406840F47F
:102A9000302048600846006820F00F0008600846B3
:102AA000006840F00B00086000204FF02041886172
:102AB000C861C1F81C010846806940F480508861F3
:102AC0000846806940F4804088610846806940F08B
:102AD000100088610846C069C8610846C06940F0B6
:102AE0000100C8610846C06940F47060C8610846CA
:102AF000D0F81C01C1F81C010846D0F81C01C1F82F
:102B00001C010846D0F81C0140F44070C1F81C01BB
:102B10000846806940F0010088613220FEF771FFAD
:102B200001210020FFF76BFC3220FEF76AFF002036
:102B3000FFF76CFC2A49888008468088FF280ADB5A
:102B400008468088A0F57F41FF3904D0244880885A
:102B5000B0F5134F5CD1D320FFF746FCFFF74BFCD9
:102B6000FFF749FCFFF747FC1D498880084680882D
:102B70000006000C8880FFF73EFC1949898808434D
:102B80001749888008468088A0F51341413918D03C
:102B9000BF20FFF729FCFFF72EFCFFF72CFCFFF707
:102BA0002AFCFFF728FC0E4988800846808800062A
:102BB000000C8880FFF71FFC0949898808430849F1
:102BC000888007488088A0F51341413920D0044807
:102BD0008088A0F5D04104391AD049F2413015E07F
:102BE000280200203C0000200008006C0010024079
:102BF000000C0140000001400414014000F0FF00FF
:102C000000100140BB0B00BB00200140FF49888041
:102C1000FE488088A0F5134141397ED1CF20FFF7CF
:102C2000E3FB0020FFF7E3FBC120FFF7E0FB3020D0
:102C3000FFF7DDFBED20FFF7D7FB6420FFF7D7FBA5
:102C40000320FFF7D4FB1220FFF7D1FB8120FFF711
:102C5000CEFBE820FFF7C8FB8520FFF7C8FB10205C
:102C6000FFF7C5FB7A20FFF7C2FBCB20FFF7BCFBC9
:102C70003920FFF7BCFB2C20FFF7B9FB0020FFF742
:102C8000B6FB3420FFF7B3FB0220FFF7B0FBF720C1
:102C9000FFF7AAFB2020FFF7AAFBEA20FFF7A4FB1F
:102CA0000020FFF7A4FB0020FFF7A1FBC020FFF7E7
:102CB0009BFB1B20FFF79BFBC120FFF795FB01202F
:102CC000FFF795FBC520FFF78FFB3020FFF78FFB49
:102CD0003020FFF78CFBC720FFF786FBB720FFF7FC
:102CE00086FB3620FFF780FB4820FFF780FB3A2069
:102CF000FFF77AFB5520FFF77AFBB120FFF774FB53
:102D00000020FFF774FB1A20FFF771FBB620FFF7D6
:102D10006BFB0A20FFF76BFB00E097E0A220FFF7B8
:102D200066FBF220FFF760FB0020FFF760FB262028
:102D3000FFF75AFB0120FFF75AFBE020FFF754FB97
:102D40000F20FFF754FB2A20FFF751FB2820FFF745
:102D50004EFB0820FFF74BFB0E20FFF748FB082037
:102D6000FFF745FB5420FFF742FBA920FFF73FFB8D
:102D70004320FFF73CFB0A20FFF739FB0F20FFF74A
:102D800036FB0020FFF733FB0020FFF730FB00206D
:102D9000FFF72DFB0020FFF72AFBE120FFF724FBC4
:102DA0000020FFF724FB1520FFF721FB1720FFF77A
:102DB0001EFB0720FFF71BFB1120FFF718FB062067
:102DC000FFF715FB2B20FFF712FB5620FFF70FFB39
:102DD0003C20FFF70CFB0520FFF709FB1020FFF755
:102DE00006FB0F20FFF703FB3F20FFF700FB3F2010
:102DF000FFF7FDFA0F20FFF7FAFA2B20FFF7F4FA9E
:102E00000020FFF7F4FA0020FFF7F1FA0120FFF7A6
:102E1000EEFA3F20FFF7EBFA2A20FFF7E5FA002051
:102E2000FFF7E5FA0020FFF7E2FA0020FFF7DFFAEC
:102E3000EF20FFF7DCFA1120FFF7D6FA7820FEF733
:102E4000E0FD2920FFF7D0FA01F012BA6F48808820
:102E5000A0F5D04104397ED11120FFF7C5FA142026
:102E6000FEF7CFFDD020FFF7BFFA0720FFF7BFFA2C
:102E70004220FFF7BCFA1D20FFF7B9FAD120FFF777
:102E8000B3FA0020FFF7B3FA1A20FFF7B0FA0920CF
:102E9000FFF7ADFAD220FFF7A7FA0120FFF7A7FA54
:102EA0002220FFF7A4FAC020FFF79EFA1020FFF7B8
:102EB0009EFA3B20FFF79BFA0020FFF798FA0220CA
:102EC000FFF795FA1120FFF792FAC520FFF78CFA69
:102ED0000320FFF78CFAC820FFF786FA0020FFF7DF
:102EE00086FA2520FFF783FA2120FFF780FA0520D4
:102EF000FFF77DFA0020FFF77AFA0A20FFF777FA4A
:102F00006520FFF774FA2520FFF771FA7720FFF7A5
:102F10006EFA5020FFF76BFA0F20FFF768FA0020D7
:102F2000FFF765FAF820FFF75FFA0120FFF75FFA75
:102F3000FE20FFF759FA0020FFF759FA0220FFF7A9
:102F400056FA2020FFF750FA3620FFF74DFA0820F6
:102F5000FFF74DFA00E02AE03A20FFF745FA552046
:102F6000FFF745FA2B20FFF73FFA0020FFF73FFA63
:102F70000020FFF73CFA0120FFF739FA3F20FFF766
:102F800036FA2A20FFF730FA0020FFF730FA002047
:102F9000FFF72DFA0120FFF72AFADF20FFF727FAC3
:102FA0007820FEF72EFD2920FFF71EFA4CE7174880
:102FB0008088A0F5134125397DD147F6F001E52041
:102FC000FFF71DFA4FF480710120FFF718FA4FF454
:102FD000E0610220FFF713FA41F230010320FFF70E
:102FE0000EFA00210420FFF70AFA40F2022108201D
:102FF000FFF705FA00210920FFF701FA00210A2056
:10300000FFF7FDF900210C2002E00000280200205B
:10301000FFF7F5F900210D20FFF7F1F900210F204E
:10302000FFF7EDF900211020FFF7E9F90721112042
:10303000FFF7E5F900211220FFF7E1F90021132045
:10304000FFF7DDF900210720FFF7D9F941F2906180
:103050001020FFF7D4F940F227211120FFF7CFF914
:103060009D211220FFF7CBF94FF4C8511320FFF731
:10307000C6F925212920FFF7C2F90D212B20FFF7E2
:10308000BEF907213020FFF7BAF940F203313120B1
:10309000FFF7B5F903213220FFF7B1F940F206211D
:1030A0003520FFF7ACF908213620FFF7A8F940F2E8
:1030B0000641372000E05CE0FFF7A1F94FF44171D1
:1030C0003820FFF79CF907213920FFF798F940F2E3
:1030D00002613C20FFF793F908213D20FFF78FF9AB
:1030E00000215020FFF78BF9EF215120FFF787F9DE
:1030F00000215220FFF783F940F23F115320FFF7E0
:103100007EF94FF427416020FFF779F90121612012
:10311000FFF775F900216A20FFF771F9002180207F
:10312000FFF76DF900218120FFF769F90021822066
:10313000FFF765F900218320FFF761F90021842062
:10314000FFF75DF900218520FFF759F91021902044
:10315000FFF755F94FF4C0619220FFF750F940F2A4
:1031600033110720FFF74BF922210020FFF747F921
:103170006AE6FF488088A0F5134128397ED141F2E4
:103180008F01EC20FFF73BF941F23421EF20FFF7EC
:1031900036F94FF480710120FFF731F94FF4E06107
:1031A0000220FFF72CF941F230010320FFF727F945
:1031B00000210420FFF723F940F202210820FFF745
:1031C0001EF900210920FFF71AF900210A20FFF754
:1031D00016F901210C20FFF712F900210D20FFF74D
:1031E0000EF900210F20FFF70AF900211020FFF748
:1031F00006F907211120FFF702F900211220FFF73D
:10320000FEF800211320FFF7FAF801210720FFF74D
:10321000F6F83220FEF7F5FB41F290411020FFF75F
:10322000EEF840F227211120FFF7E9F83220FEF7EF
:10323000E8FB8A211220FFF7E2F83220FEF7E1FBDB
:103240004FF4D0511320FFF7DAF806212920FFF7B9
:10325000D6F80D212B20FFF7D2F83220FEF7D1FB54
:1032600000212020FFF7CBF800212120FFF7C7F82D
:103270003220FEF7C6FB0021302000E074E0FFF7AB
:10328000BEF840F204613120FFF7B9F840F2053191
:103290003220FFF7B4F800213520FFF7B0F840F6F0
:1032A00009413620FFF7ABF84FF401713720FFF7E3
:1032B000A6F840F201313820FFF7A1F840F207717B
:1032C0003920FFF79CF800213C20FFF798F840F6E2
:1032D0000A213D20FFF793F83220FEF792FB0021F0
:1032E0005020FFF78CF8EF215120FFF788F80021DC
:1032F0005220FFF784F840F23F115320FFF77FF888
:103300004FF427416020FFF77AF801216120FFF791
:1033100076F800216A20FFF772F800218020FFF77D
:103320006EF800218120FFF76AF800218220FFF764
:1033300066F800218320FFF762F800218420FFF760
:103340005EF800218520FFF75AF810219020FFF742
:1033500056F84FF4C0619220FFF751F840F2331154
:103360000720FFF74CF86FE581488088A0F51341EE
:1033700020397ED10846FFF742F84FF480710120D2
:10338000FFF73DF84FF4E0610220FFF738F841F213
:1033900030010320FFF733F800210420FFF72FF856
:1033A00040F202210820FFF72AF800210920FFF748
:1033B00026F800210A20FFF722F801210C20FFF750
:1033C0001EF800210D20FFF71AF800210F20FFF74B
:1033D00016F83220FEF715FB40F201110720FFF727
:1033E0000EF83220FEF70DFB4FF486511020FFF748
:1033F00006F807211120FFF702F84FF48871122018
:10340000FEF7FDFF4FF430611320FEF7F8FF0021B7
:103410002920FEF7F4FF44F210012B20FEF7EFFF06
:1034200000215020FEF7EBFFEF215120FEF7E7FFD0
:1034300000215220FEF7E3FF40F23F115320FEF738
:10344000DEFF4FF41C516020FEF7D9FF01216120FF
:10345000FEF7D5FF00216A20FEF7D1FF0021802072
:10346000FEF7CDFF00218120FEF7C9FF0021822059
:1034700000E02CE0FEF7C3FF00218320FEF7BFFF32
:1034800000218420FEF7BBFF00218520FEF7B7FF57
:1034900010219020FEF7B3FF00219220FEF7AFFF2E
:1034A00001219320FEF7ABFF4FF488719520FEF7C2
:1034B000A6FF00219720FEF7A2FF00219820FEF72B
:1034C0009EFF40F273110720FEF799FFBCE42848E5
:1034D0008088A0F5134131397DD141F21401E720F4
:1034E000FEF78DFF4FF480710120FEF788FF4FF447
:1034F00000710220FEF783FF41F238010320FEF73E
:103500007EFF40F202210820FEF779FF002109200A
:10351000FEF775FF00210A20FEF771FF00210C2045
:10352000FEF76DFF00210D20FEF769FF00210F203F
:10353000FEF765FF00211020FEF761FF0721112033
:10354000FEF75DFF00211220FEF759FF0021132036
:10355000FEF755FFC820FEF754FA41F290611020A3
:10356000FEF74DFF40F227211120FEF748FF01E052
:10357000280200203220FEF744FA0C211220FEF728
:103580003EFF3220FEF73DFA4FF400611320FEF7B4
:1035900036FF11212920FEF732FF0B212B20FEF7E9
:1035A0002EFF3220FEF72DFA00212020FEF727FF04
:1035B00040F23F112120FEF722FF00213020FEF7CC
:1035C0001EFF4FF483713120FEF719FF00213220D6
:1035D000FEF715FF00E067E04FF401713520FEF7BC
:1035E0000EFF41F20A613620FEF709FF40F2077133
:1035F0003720FEF704FF4FF483713820FEF7FFFEFB
:1036000040F207713920FEF7FAFE40F202413C20F9
:10361000FEF7F5FE40F60F413D20FEF7F0FE0021DB
:103620005020FEF7ECFEEF215120FEF7E8FE0021CE
:103630005220FEF7E4FE40F23F115320FEF7DFFE7A
:103640004FF41C516020FEF7DAFE01216120FEF7E5
:10365000D6FE00216A20FEF7D2FE00218020FEF770
:10366000CEFE00218120FEF7CAFE00218220FEF757
:10367000C6FE00218320FEF7C2FE00218420FEF753
:10368000BEFE00218520FEF7BAFE10219020FEF735
:10369000B6FE4FF4C0619220FEF7B1FE40F2331146
:1036A0000720FEF7ACFE81E4FF488088A0F5A84122
:1036B00008397ED14FF480710120FEF7A0FE4FF44F
:1036C000E0610220FEF79BFE41F230010320FEF78D
:1036D00096FE00210420FEF792FE40F2072108200A
:1036E000FEF78DFE00210920FEF789FE00210A2049
:1036F000FEF785FE00210C20FEF781FE00210D2043
:10370000FEF77DFE00210F20FEF779FE1420FEF764
:1037100078F941F2B0611020FEF771FE012111200D
:10372000FEF76DFE01211720FEF769FE4FF49C7134
:103730001220FEF764FE4FF400611320FEF75FFED7
:1037400009212920FEF75BFE09212A20FEF757FEFA
:103750000021A420FEF753FE00215020FEF74FFE6B
:10376000EF215120FEF74BFE00215220FEF747FECD
:1037700040F23F115320FEF742FE4FF41C516020EF
:10378000FEF73DFE01216120FEF739FE00216A208F
:10379000FEF735FE00218020FEF731FE002181205A
:1037A000FEF72DFE00218220FEF729FE0021832056
:1037B00000E023E0FEF723FE00218420FEF71FFE39
:1037C00000218520FEF71BFE13219020FEF717FE37
:1037D00000219220FEF713FE03219320FEF70FFE37
:1037E0004FF488719520FEF70AFE40F2731107200E
:1037F000FEF705FE3220FEF704F9B9E4AA488088F6
:10380000A0F5A85105397ED10720FEF7F8FD32203A
:10381000FEF7F7F84FF48E711220FEF7F0FD01214C
:10382000A420FEF7ECFD0F210820FEF7E8FD08219B
:103830000A20FEF7E4FD08210D20FEF7E0FD40F22E
:1038400007713020FEF7DBFD07213120FEF7D7FDA1
:1038500040F203613220FEF7D2FD4FF4E0613320E5
:10386000FEF7CDFD40F202213420FEF7C8FD022113
:103870003520FEF7C4FD41F60F713620FEF7BFFD7F
:1038800040F207713720FEF7BAFD00213820FEF71D
:10389000B6FD00213920FEF7B2FD40F207713A2053
:1038A000FEF7ADFD00213B20FEF7A9FD07213C20DE
:1038B000FEF7A5FD00213D20FEF7A1FD3220FEF719
:1038C000A0F801210720FEF79AFD01211720FEF73D
:1038D00096FD3220FEF795F84FF4BD511020FEF70B
:1038E0008EFD40F217211120FEF789FD4FF48F71F4
:1038F0001220FEF784FD4FF470611320FEF77FFD68
:1039000000212A2000E093E0FEF779FD0A2129201A
:10391000FEF775FD4FF49F711220FEF770FD002138
:103920005020FEF76CFDEF215120FEF768FD0021CD
:103930005220FEF764FD40F23F115320FEF75FFD79
:103940004FF41C516020FEF75AFD01216120FEF763
:1039500056FD00216A20FEF752FD00218020FEF76F
:103960004EFD00218120FEF74AFD00218220FEF756
:1039700046FD00218320FEF742FD00218420FEF752
:103980003EFD00218520FEF73AFD13219020FEF731
:1039900036FD4FF440719220FEF731FD0521932052
:1039A000FEF72DFD00219520FEF729FD002197202F
:1039B000FEF725FD00219820FEF721FD4FF48071D0
:1039C0000120FEF71CFD4FF4E0610220FEF717FD19
:1039D00041F238010320FEF712FD00210420FEF71A
:1039E0000EFD00210C20FEF70AFD00210F20FEF73E
:1039F00006FD00212020FEF702FD00212120FEF718
:103A0000FEFC21210720FEF7FAFC1420FDF7F9FF48
:103A100061210720FEF7F3FC1420FDF7F2FF40F2CE
:103A200073110720FEF7EBFC1420FDF7EAFF9AE480
:103A30001D488088A0F5354105397ED10846FEF73E
:103A4000DEFC00210846FEF7DAFC00210846FEF7FE
:103A5000D6FC00210846FEF7D2FC0121A420FEF787
:103A6000CEFC1420FDF7CDFF4FF41C516020FEF773
:103A7000C6FC40F202210820FEF7C1FC4FF405719C
:103A80003020FEF7BCFC43F215713120FEF7B7FC85
:103A900040F204613220FEF7B2FC40F6166133209A
:103AA000FEF7ADFC02E000002802002042F21121E6
:103AB0003420FEF7A4FC4FF4A8513520FEF79FFCFC
:103AC00048F207513620FEF79AFC41F207413720B1
:103AD000FEF795FC41F203413820FEF790FC2021CF
:103AE0003920FEF78CFC1A219020FEF788FC00217B
:103AF0001020FEF784FC07211120FEF780FC002136
:103B00001220FEF77CFC00211320FEF778FC142025
:103B1000FDF777FF4FF4E6611020FEF770FC40F2EE
:103B200037111120FEF76BFC1420FDF76AFF4FF4EC
:103B3000DC711220FEF763FC00E086E01420FDF744
:103B400060FF4FF470611320FEF759FC80212A209A
:103B5000FEF755FC48212920FEF751FC1420FDF703
:103B600050FF4FF480710120FEF749FC4FF4E061F3
:103B70000220FEF744FC41F238010320FEF73FFC2F
:103B800040F202210820FEF73AFC00210A20FEF74D
:103B900036FC00210C20FEF732FC00210D20FEF740
:103BA0002EFC30210E20FEF72AFC00215020FEF7CB
:103BB00026FCEF215120FEF722FC00215220FEF7C7
:103BC0001EFC40F23F115320FEF719FC4FF41C512C
:103BD0006020FEF714FC01216120FEF710FC00219B
:103BE0006A20FEF70CFC11219020FEF708FC4FF430
:103BF000C0619220FEF703FC40F202419320FEF7E1
:103C0000FEFB02219420FEF7FAFB1420FDF7F9FEDB
:103C100001210720FEF7F3FB1420FDF7F2FE6121DE
:103C20000720FEF7ECFB40F273110720FEF7E7FBDD
:103C300000212020FEF7E3FB00212120FEF7DFFB1F
:103C400022210020FEF7DBFB12E3FF488088A0F56D
:103C5000454105397DD10846FEF7D1FB00210846D4
:103C6000FEF7CDFB1420FDF7CCFE00210846FEF741
:103C7000C6FB00210846FEF7C2FB00210846FEF7FE
:103C8000BEFB00210846FEF7BAFB0121A420FEF787
:103C9000B6FB1420FDF7B5FE4FF41C516020FEF773
:103CA000AEFB40F606010820FEF7A9FB40F20371C7
:103CB0003020FEF7A4FB01213120FEF7A0FB0421F8
:103CC0003220FEF79CFB4FF481713320FEF797FB07
:103CD0004FF440713420FEF792FB40F2031135207F
:103CE000FEF78DFB1F213620FEF789FB40F20371A2
:103CF0003720FEF784FB01213820FEF780FB0421EA
:103D00003920FEF77CFB15219020FEF778FB4FF45D
:103D100082611020FEF773FB40F247211120FEF76D
:103D20006EFB4FF4DE711220FEF769FB4FF4606109
:103D30001320FEF764FB7820FDF763FE4FF48071DB
:103D40000120FEF75CFB4FF400710220FEF757FBE9
:103D500000E050E041F230010320FEF750FB082163
:103D60000A20FEF74CFB00210C20FEF748FB202127
:103D70000E20FEF744FB00210F20FEF740FB002140
:103D80002020FEF73CFB00212120FEF738FB3D21DF
:103D90002A20FEF734FB1420FDF733FE2D212920C5
:103DA000FEF72DFB00215020FEF729FB4DF2EF011D
:103DB0005120FEF724FB00215220FEF720FB40F2A9
:103DC0003F115320FEF71BFB00216120FEF717FB7C
:103DD00000216A20FEF713FB4FF440719220FEF79A
:103DE0000EFB05219320FEF70AFB4FF4807107209C
:103DF000FEF705FB3CE294488088A0F5094189392B
:103E00007DD101210020FEF7FAFA4AF6A401032031
:103E1000FEF7F5FA00210C20FEF7F1FA40F60C014E
:103E20000D20FEF7ECFA4FF42C510E20FEF7E7FAC6
:103E3000B0211E20FEF7E3FA42F63F310120FEF7E3
:103E4000DEFA4FF4C0610220FEF7D9FA00211020FB
:103E5000FEF7D5FA46F278011120FEF7D0FA0021DC
:103E60000520FEF7CCFA00210620FEF7C8FA4EF630
:103E70001C711620FEF7C3FA03211720FEF7BFFAC4
:103E800040F233210720FEF7BAFA00210B20FEF79B
:103E9000B6FA00210F20FEF7B2FA00214120FEF70A
:103EA000AEFA00214220FEF7AAFA00214820FEF7D0
:103EB000A6FA40F23F114920FEF7A1FA00214A205C
:103EC000FEF79DFA00214B20FEF799FA4FF46F415F
:103ED0004420FEF794FA00214520FEF790FA40F2C4
:103EE0003F114620FEF78BFA40F207713020FEF7B3
:103EF00086FA4FF401713120FEF781FA00E03DE0CF
:103F00004FF401713220FEF77AFA40F20251332069
:103F1000FEF775FA40F207513420FEF770FA4FF4BD
:103F200001713520FEF76BFA4FF401713620FEF770
:103F300066FA40F202513720FEF761FA40F2023190
:103F40003A20FEF75CFA40F202313B20FEF757FAC6
:103F500000212320FEF753FA00212420FEF74FFA18
:103F60004FF400412520FEF74AFA00214F20FEF7CA
:103F700046FA00214E20FEF742FA79E13248808865
:103F8000A0F58A4131397ED101210020FEF737FAB0
:103F90000A20FDF736FD41F228611020FEF72FFAC6
:103FA0000E211220FEF72BFA40F639211320FEF7DE
:103FB00026FA0A20FDF725FD40211120FEF71FFA01
:103FC00050211520FEF71BFA0A20FDF71AFD1E21CD
:103FD0001220FEF714FA0A20FDF713FD4FF4B15139
:103FE0001020FEF70CFA42F639211320FEF707FAEB
:103FF0000A20FDF706FD4FF480710120FEF7FFF95E
:104000004FF440710220FEF7FAF941F23801032023
:10401000FEF7F5F940F202210820FEF7F0F9082139
:104020000A20FEF7ECF900213020FEF7E8F940F213
:1040300002413120FEF7E3F94FF483713220FEF79D
:10404000DEF940F2035101E0280200203320FEF7A0
:10405000D6F94FF482713420FEF7D1F940F20131E4
:104060003520FEF7CCF940F207713620FEF7C7F98C
:1040700040F205313720FEF7C2F94FF402713820C3
:10408000FEF7BDF900E03EE040F60B713920FEF787
:10409000B6F902214120FEF7B2F94FF41C5160201D
:1040A000FEF7ADF901216120FEF7A9F94FF4047183
:1040B0009020FEF7A4F94FF485719220FEF79FF946
:1040C00004219320FEF79BF94FF48071A020FEF7A6
:1040D00096F901210720FEF792F921210720FEF72A
:1040E0008EF923210720FEF78AF933210720FEF7F6
:1040F00086F940F233110720FEF781F90021A02054
:10410000FEF77DF9B4E0FA488088A0F58A41353998
:10411000F8D130211520FEF772F910219A20FEF710
:104120006EF920211120FEF76AF943F22841102090
:10413000FEF765F902211220FEF761F941F238011C
:104140001320FEF75CF92820FDF75BFC12210846DE
:10415000FEF755F92820FDF754FC43F220411020CA
:10416000FEF74DF943F238011320FEF748F94620D7
:10417000FDF747FC00213020FEF741F940F20241F3
:104180003120FEF73CF940F207313220FEF737F9D3
:104190004FF441713320FEF732F904213420FEF749
:1041A0002EF940F201413520FEF729F940F207715E
:1041B0003620FEF724F940F205313720FEF71FF9CB
:1041C0004FF4C2613820FEF71AF94FF4C26139206A
:1041D000FEF715F94FF480710120FEF710F94FF446
:1041E00040710220FEF70BF941F230010320FEF787
:1041F00006F940F608010820FEF701F908210A2017
:10420000FEF7FDF84FF41C516020FEF7F8F801218D
:104210006120FEF7F4F84FF49F719020FEF7EFF85D
:104220004FF480719220FEF7EAF84FF480719320EA
:10423000FEF7E5F84FF44051A020FEF7E0F810211A
:10424000A320FEF7DCF801210720FEF7D8F8212192
:104250000720FEF7D4F823210720FEF7D0F83321FA
:104260000720FEF7CCF840F233110720FEF7C7F81D
:104270000020FEF718FB01209E4908604FF6FF70F2
:10428000FEF788FB10BD2DE9F04F04460D4616469B
:104290001F46DDF824804FF0000B301B401C1FFA36
:1042A00080FBA94615E049462046FEF7D7F8FEF701
:1042B000B8F84FF0000A06E04046FEF798F80AF119
:1042C00001001FFA80FADA45F6DB09F101001FFA56
:1042D00080F9B945E7DDBDE8F08F2DE9F84F0446D8
:1042E0000D4616461F46DDF82880301B401C80B264
:1042F0000090781B401C1FFA80F94FF0000A1BE069
:1043000005EB0A0081B22046FEF7A8F8FEF789F80F
:104310004FF0000B09E00AFB09B038F810007649AD
:1043200008800BF101001FFA80FB00988345F2DB47
:104330000AF101001FFA80FACA45E1DBBDE8F88FF7
:104340002DE9FF4F85B004460D4616460020049027
:104350000390A6EB04080898A0EB0509A346009576
:10436000B8F1000F02DD012001900AE0B8F1000F62
:1043700002D10020019004E04FF0FF300190C8F11D
:104380000008B9F1000F02DD4FF0010A09E0B9F1B0
:10439000000F02D14FF0000A03E04FF0FF3AC9F1DD
:1043A0000009C84502DDCDF8088001E0CDF808908D
:1043B000002722E0009881B21FFA8BF0FEF723FA63
:1043C0000498404404900398484403900299049848
:1043D000884205DD04990298081A049001988344E4
:1043E000DDE90210884206DDDDE90210401A039083
:1043F000009850440090781C87B20298401C874275
:10440000D8DD09B0BDE8F08FF0B504460D4616467C
:104410001F462B46324629462046FFF791FF3B4672
:10442000224629462046FFF78BFF3B463246394657
:104430002046FFF785FF3B46324629463046FFF7C8
:104440007FFFF0BD2DE9F04304460D4616460027D8
:10445000B0460320A0EB460946E0A5EB080291B266
:10446000E21990B2FEF7CFF9EA1B91B204EB080211
:1044700090B2FEF7C8F9EA1991B204EB080290B2C3
:10448000FEF7C1F905EB080291B2E21990B2FEF70E
:10449000BAF905EB080291B2E21B90B2FEF7B3F94C
:1044A000EA1991B2A4EB080290B2FEF7ACF9A5EBC1
:1044B000080291B2E21B90B2FEF7A5F9EA1B91B295
:1044C000A4EB080290B2FEF79EF97F1CB9F1000F31
:1044D00003DAB800801D814406E0A7EB08008000E5
:1044E0000A308144A8F101084745B6DDBDE8F083F4
:1044F00028020020808121420008006C2DE9F84F3D
:1045000004460D4616461F460095CC48B0F800B04C
:10451000A6F12000C6B20A98002850D182464BE08E
:104520000C2F07D106EB4600C54901EB800010F8BF
:104530000A8004E0C34800EB061010F80A804FF030
:10454000000931E018F0800F03D0BC48A0F800B09B
:1045500003E0BD480088B949088029462046FEF797
:1045600052F94FEA48604FEA1068681C85B2B748B4
:104570000088A04204DCB148A0F800B0BDE8F88F84
:104580000098281AB8420BD1009D601C84B2AF4835
:104590000088A04203DCA948A0F800B0EEE706E0DE
:1045A00009F1010000F0FF09B9F1080FCADB00BFF3
:1045B0000AF1010000F0FF0ABA45B1DB47E04FF015
:1045C000000A42E00C2F07D106EB46009C4901EBA4
:1045D000800010F80A8004E09A4800EB061010F8FA
:1045E0000A804FF0000928E018F0800F03D0294618
:1045F0002046FEF708F94FEA48604FEA1068681C49
:1046000085B292484088A04203DC8C48A0F800B0F4
:10461000B4E70098281AB8420BD1009D601C84B200
:104620008A480088A04203DC8448A0F800B0A5E7CF
:1046300006E009F1010000F0FF09B9F1080FD3DB32
:1046400000BF0AF1010000F0FF0ABA45BADB7B485F
:10465000A0F800B092E710B50246012000E05043F8
:104660000B00A1F10104E1B2F9D110BD2DE9FF4F1A
:1046700081B0044615461E460E9F4FF0000AD046F4
:104680003EE0A6EB0800401EC1B20A20FFF7E3FFA0
:10469000B5FBF0F00A21B0FBF1F201FB120000F0D3
:1046A000FF09BAF1000F16D1701E404513DDB9F1B4
:1046B000000F0ED10023BB4607EBD771491001FB59
:1046C000084188B200933B4620220299FFF716FF6B
:1046D00012E04FF0010A0023BB4607EBD7714910E7
:1046E00001FB084188B200933B4609F13001CAB290
:1046F0000299FFF703FF00BF08F1010000F0FF0877
:10470000B045BEDB05B0BDE8F08F2DE9FF4F82B0AC
:10471000044615461E46DDE90F78002001908146CB
:1047200052E0A6EB0900401EC1B20A20FFF793FF3A
:10473000B5FBF0F00A21B0FBF1F201FB120000F032
:10474000FF0A019850BB701E484527DDBAF1000FE3
:1047500022D118F0800F0FD008F00103BB4607EB01
:10476000D771491001FB094188B200933B463022C2
:104770000399FFF7C3FE0EE008F00103BB4607EB09
:10478000D771491001FB094188B200933B462022B2
:104790000399FFF7B3FE13E00120019008F0010335
:1047A000BB4607EBD771491001FB094188B2009362
:1047B0003B460AF13001CAB20399FFF79FFE00BFE2
:1047C00009F1010000F0FF09B145AADB06B0BDE820
:1047D000F08F2DE9F84704460D4616461F46DDE9E1
:1047E000098904F0FF0A301986B2781987B219E0F6
:1047F000B44203DB544605EB080085B2BD4200DB42
:1048000018E00023009399F80020434629462046EB
:10481000FFF774FE404608EBD87104EB61018CB2DF
:1048200009F1010999F800007E2803DC99F80000DD
:104830002028DDDA00BFBDE8F88700003C0000203A
:1048400082560008F65A00083E0000202802002088
:1048500070B50025DE48806940F00400DC498861BD
:104860000846806940F0080088610846806940F089
:10487000100088610846806940F020008861084681
:10488000806940F480708861D248006820F00F0091
:10489000D149C1F804080846D0F8040840F00800DF
:1048A000C1F804080846D0F80C0840F48070C1F83C
:1048B0000C080846D0F8000C20F47F20C1F8000C4A
:1048C0000846D0F8000C40F44C30C1F8000C084603
:1048D000D0F80C0C40F01800C04908604FF0883048
:1048E000BF4908600846C06840F0FF00C86008463D
:1048F000D0F8000420F07060C1F800040846D0F839
:10490000000440F04070C1F800040846D0F80C04E0
:1049100040F04000C1F80C04B248406820F07F40ED
:10492000B04948600846406840F04C5048604FF439
:10493000E030C8600120FDF783F900F057F98021CD
:10494000122000F054FA08B1012070BD3220FDF7AA
:1049500058F80B2000F06AFA0446732C01D00220AC
:10496000F3E70A2000F062FA0446762C01D0022018
:10497000EBE700250DE09C4A02EB450251789A4A8C
:1049800012F8150000F033FA0220FDF73AF8681C1F
:1049900085B2732DEFD30020D7E72DE9F04104460F
:1049A000E72500260027012C06D0022C08D0032C76
:1049B0000AD0042C10D10BE0E5255A265C270BE029
:1049C000E5255826602707E0E52584264C2703E0E7
:1049D000E5259626402700BF00BF2946132000F09A
:1049E00006FA3146012000F002FA3946022000F0B2
:1049F000FEF9BDE8F0812DE9F0410446802522262C
:104A00005E2734B1012C08D0032C0AD0042C10D11D
:104A10000BE0402511262F270BE066251B264B2790
:104A200007E099252826712703E0C02533268D2726
:104A300000BF00BF29464F2000F0D9F92946502079
:104A400000F0D5F90021512000F0D1F93146522073
:104A500000F0CDF93946532000F0C9F92946542019
:104A600000F0C5F99E21582000F0C1F9BDE8F081A1
:104A700070B50446002534B1012C06D0032C06D0B5
:104A8000042C08D105E0B02505E0982503E01825A1
:104A900001E0302500BF00BF2946552000F0A7F9EE
:104AA00070BD70B50446402534B1012C06D0032CEE
:104AB00006D0042C08D105E0302505E0382503E0B8
:104AC000502501E0602500BF00BF2946562000F0B8
:104AD0008EF970BD2DE9F04104460425C0268027DB
:104AE000072C1DD2DFE804F01C04080C1014180079
:104AF00024258026802713E01425802680270FE0B8
:104B00001425C02680270BE014254026402707E007
:104B100014258026C02703E01425A026402700BFC7
:104B200000BF29463A2000F062F93146682000F0C3
:104B30005EF93946672000F05AF9BDE8F0812DE9A9
:104B4000F04704460D4616461F4604EB46001FFA82
:104B500080F805EB47001FFA80F9B9F5447F03DDC3
:104B6000A9F544701FFA80F9032000F05FF982462E
:104B70000AF0F00A08F00301204661F39F0040EAC2
:104B80000A0A5146032000F032F9C4F387011920C4
:104B900000F02DF9C8F387011A2000F028F932201F
:104BA00000F044F982460AF0C00A09F007012846DD
:104BB00061F3DF0040EA0A0AC5F3C701172000F0DD
:104BC00016F9C9F3C701182000F011F9BDE8F08704
:104BD0000010024004080140000001400C0C01409C
:104BE0000010014000200140E6600008A3488069F1
:104BF00040F48070A14988610846806940F0200037
:104C000088619F48406820F470009D4948600846CC
:104C1000406840F4000048600846C06840F4005016
:104C2000C8609848006820F470409749C1F80004B3
:104C30000846D0F8000440F44050C1F8000408468B
:104C4000D0F80C0440F00800C1F80C048C4840680F
:104C500020F470008A4948600846406840F44010DB
:104C60004860704710B50120884908608849C1F83C
:104C70008C013220FCF7ABFE002084490860322012
:104C8000FCF7A5FE00208249C1F88C0110BD10B5CB
:104C900000207E4908603220FCF799FE01207C4903
:104CA000C1F88C013220FCF792FE012077490860A0
:104CB0003220FCF78CFE10BD10B53220FCF787FEC9
:104CC0000120724908607249C1F88C013220FCF75A
:104CD0007EFE00206F4908603220FCF778FE00203D
:104CE0006D49C1F8B4013220FCF771FE10BD70B5FA
:104CF000044600251AE014F0800F03D00120634918
:104D0000086002E00020614908606006040E32205D
:104D1000FCF75DFE01205F4908603220FCF757FE7A
:104D200000205B49C1F88C01681CC5B2082DE2DB8C
:104D30005348406820F47000514948600846406874
:104D400040F4000048603220FCF741FE0120514948
:104D500008603220FCF73BFE4F48D0F8340108B120
:104D6000012600E0002600204A49086044484068C7
:104D700020F47000424948600846406840F4401002
:104D80004860304670BD70B500243D48406820F44E
:104D900070003B4948600846406840F400004860A5
:104DA000082515E03220FCF712FE01203949086081
:104DB0006006040E3848D0F8340108B1601CC4B253
:104DC0003220FCF704FE002032490860681EC5B29C
:104DD000002DE7DC2A48406820F47000284948602C
:104DE0000846406840F440104860204670BD70B5E9
:104DF00004460D460026FFF735FF4220FFF777FFF8
:104E000000B101266420FCF7E2FD2046FFF76FFFAA
:104E100000B101266420FCF7DAFD2846FFF767FFA2
:104E200000B10126FFF733FF304670BD70B5044670
:104E30000025FFF717FF4220FFF759FF6420FCF71A
:104E4000C6FD2046FFF753FF6420FCF7C0FDFFF7C7
:104E50001EFF6420FCF7BBFDFFF704FF4320FFF7B4
:104E600046FF6420FCF7B3FDFFF78DFF0546FFF713
:104E700023FFFFF70CFF284670BD00000010024022
:104E8000002001400014014000100140B401244200
:104E9000008022428C8122420000244239488069ED
:104EA00040F00800374988610846806940F00400F6
:104EB00088610846806940F0400088613248006897
:104EC00080B23249C1F800082F48006830490843D1
:104ED0002E49C1F800080846D0F80C08C1F80C08A3
:104EE0000846D0F8040820F47F20C1F804080846DA
:104EF000D0F8040840F44C30C1F804080846D0F853
:104F00000C08C1F80C080846D0F8000C20F470001A
:104F1000C1F8000C0846D0F8000C40F44010C1F86D
:104F2000000C0846D0F80C0C40F02000C1F80C0C26
:104F30000846D0F8040C20F07F60C1F8040C084645
:104F4000D0F8040C40F04C70C1F8040C0846D0F8BE
:104F50000C0CC1F80C0C0F48D0F8000820F47000BD
:104F60000C49C1F800080846D0F8000840F4401089
:104F7000C1F800080846D0F80C0840F02000C1F83D
:104F80000C0870470010024000080140000001407A
:104F900000003333001001400020224908602249FC
:104FA000C1F894011F4908310860091D08601D49B6
:104FB0001C310860091D08601C4908601C49C1F8C3
:104FC000B801704729B91B4B1A70164B1B1D18608E
:104FD00016E0012905D1184B1A70124B0C331860DA
:104FE0000EE0022905D1154B1A700E4B1C331860C8
:104FF00006E0032904D1124B1A700A4B20331860C3
:1050000000BF0F4B1B78002BFBD10C4B1B78002BE8
:10501000F7D1094B1B78002BF3D1064B1B78002BE3
:10502000EFD170479001214200002142B48121421A
:105030000080214236000020370000203800002088
:1050400039000020D2B201E000F8012B491EFBD24A
:1050500070470022F6E710B504460846114602469E
:105060002046FFF7EFFF204610BDF0B4144620F0B5
:10507000004621F0004100F000428E4205D2304649
:105080000E4601460CB182F0004219B946EA020010
:10509000F0BC7047C6F3C753C1F3C7501D1AC6F31F
:1050A000160040F40000202D14DAC1F3160141F47B
:1050B0000001002C21FA05F402D0A0EB040000E06E
:1050C0002044C5F1200401FA04F108D0494206D079
:1050D000401E04E014B14FF0FF31F9E70121F0BCAC
:1050E00000F0B8B890EA010201D5012200E00022E8
:1050F000BBE790EA010201D5002200E00122B4E7FB
:1051000003460846594001D5002200E00122194615
:10511000ABE780EA010210B502F00042400001D086
:105120004B0001D1002010BD4FEA106101EB13616B
:10513000C0F35600C3F3560340F4000043F40003E9
:10514000A0FB03307F394FEA00401C0400D0401C14
:1051500050EA134001D44000491EC3B20C0604EBD0
:10516000D010401C4008802B01D120F00100002904
:1051700000DA0020104310BDF0B480EA010230F0E4
:10518000004302F0004221F0004000D010B9F0BC12
:1051900000207047C0F3C755C3F31601C3F3C756C9
:1051A000731BC0F3160040F400047E3341F4000189
:1051B0004FF080750020A14201D3091B28436D08E0
:1051C0004FEA4101F7D151B1A14202D14FF0004164
:1051D00005E002D24FF0010101E06FF00101F0BCE7
:1051E00000F038B896230022114600F033B820F0C2
:1051F0000040C10DC0F3160040F400007F2901DA21
:1052000000207047962903DCC1F19601C840704721
:1052100096398840704730B50B4601460020202261
:10522000012409E021FA02F59D4205D303FA02F5B3
:10523000491B04FA02F52844151EA2F10102F1DC13
:1052400030BD002905DA401CB1F1004F01D120F03A
:105250000100704730B450EA01040BD130BC00208B
:10526000704701F0010545EA510141EAC07140086B
:105270005B1C01E04FF08074A042F2D24FF40004B6
:1052800004E0400040EAD17049005B1EA042F8D320
:1052900000EBC350A0F5000030BC1044D1E7000083
:1052A000064C074D06E0E06840F0010394E8070073
:1052B00098471034AC42F6D3FAF73EFFCC610008B1
:1052C000EC6100080FB410B503A9044B044A02981E
:1052D00000F02CF810BC5DF814FB0000271D00083E
:1052E000300000200FB410B504A9074B02AA0398A0
:1052F00000F01CF8044602A9002000F0BDF9204689
:1053000010BC5DF814FB00007956000802E008C8E4
:10531000121F08C1002AFAD170477047002001E02F
:1053200001C1121F002AFBD1704700002DE9FF4F79
:105330008DB005468846002667E125287ED10024E9
:105340006D1CB849A146A24601222B78203B02FAE7
:1053500003F0084202D004436D1CF6E728782A289F
:1053600016D158F8049BB9F1000F03DA44F4005445
:10537000C9F1000944F002046D1C10E009EB89003A
:1053800002EB400044F0020401EB00096D1C01E057
:105390006FF02F022978A1F130000928EED9287882
:1053A0002E2818D115F8010F44F004042A280BD137
:1053B00058F804AB6D1C0EE00AEB8A0002EB4000CB
:1053C00001EB000A6D1C01E06FF02F022978A1F1BA
:1053D00030000928F0D928786C280ED008DC4C2839
:1053E00016D068280CD06A2813D144F400140FE0BA
:1053F00074280DD07A280CD10AE044F4801401E01E
:1054000044F440146978814202D16D1C04F5801483
:105410006D1C2878692806D017DC002876D0632810
:1054200043D064288AD10A2758F8040BC4F30251E8
:10543000032900D100B2042902D100E0EDE040B21E
:10544000002871DA40422D2171E06E2810D07328B7
:1054500036D07528E6D10A2758F8040BC4F3025158
:10546000032900D180B2042900D1C0B2002161E03B
:10547000C4F30250022806D1D8F80010F217C1E98F
:10548000006240460EE0032804D1D8F800104046E0
:105490000E8007E00428D8F80010404601D10E70B5
:1054A00000E00E6000F10408AEE058F8041B8DF82F
:1054B0002C1000208DF82D000DF12C0B012003E0A5
:1054C00058F804BB4FF0FF3061074FF000070AD5D2
:1054D00000E07F1C57450EDA8742FADB1BF8071005
:1054E0000029F6D107E000E07F1C8742FCDB1BF8B7
:1054F00007100029F8D1DDE90F23A9EB07092146A0
:10550000484600F0A3F83044C61905E081E0DDE923
:105510000F121BF8010B90477F1EF8D2DDE90F2315
:10552000214648466DE0FFE7210505D52B218DF882
:105530000C100121019103E0E10797D02021F6E74B
:105540000DF1300B07E03946FFF765FEABF10102C4
:105550003031934611700028F5D104A9A1EB0B005E
:1055600020300290600702D524F4803401E04FF02F
:10557000010A029A0020924501DDAAEB0200824650
:10558000019910440144A9EB01000C90E00306D4FA
:10559000DDE90F2321460C9800F058F80644002757
:1055A0000DF10C0906E0DDE90F1219F8070090472C
:1055B000761C7F1C01988742F5DBE0030CD5DDE902
:1055C0000F2321460C9800F041F8064404E0DDE981
:1055D0000F1230209047761CBAF10000AAF1010AA0
:1055E000F5DC05E0DDE90F121BF8010B9047761C96
:1055F0000298411E02910028F4DCDDE90F232146C8
:105600000C9800F011F806446D1C287800287FF4EF
:1056100094AE304611B0BDE8F08FDDE90F1290472F
:10562000761CF1E7092801002DE9F0410446002528
:1056300017461E46880406D503E039462020B047A9
:105640006D1C641EF9D52846BDE8F0812DE9F041B6
:1056500004460025302790461E46C80300D4202764
:10566000880406D403E041463846B0476D1C641EEA
:10567000F9D52846BDE8F0810A68531C0B6010700C
:105680007047000000000000000000000000000063
:1056900000003F400000000000000000300040001B
:1056A00030004000000009000BC03D000BC03D0071
:1056B000090018C024407FE022403180000018001B
:1056C00024C01B000D803240018003801C40274015
:1056D0001C80074000401000600000000000000037
:1056E00000000000000000001F802040402000005B
:1056F000402020401F8000000000090006001F809D
:10570000060009000000040004003F8004000400BB
:105710000000001000600000000000000000040015
:105720000400040004000400000000000040000029
:10573000000000000000002001C00600380040000A
:1057400000001F802040204020401F8000000000FB
:1057500010403FC000400000000018C0214022401F
:1057600024401840000010802040244024401B802A
:10577000000002000D0011003FC0014000003C800D
:10578000244024402440238000001F8024402440E3
:105790003440038000003000200027C03800200083
:1057A00000001B802440244024401B8000001C007B
:1057B00022C0224022401F8000000000000008405C
:1057C0000000000000000000000004600000000075
:1057D0000000000004000A00110020804040090081
:1057E0000900090009000900000000004040208075
:1057F00011000A00040018002000234024001800B3
:1058000000001F802040274029401F40000000402A
:1058100007C039000F0001C0004020403FC02440B5
:1058200024401B8000001F8020402040204030800A
:10583000000020403FC0204020401F80000020404A
:105840003FC024402E4030C0000020403FC02440D4
:105850002E00300000000F001080204022403380D6
:10586000020020403FC0040004003FC02040204010
:1058700020403FC020402040000000602020202029
:105880003FC02000200020403FC024400B0030C01B
:10589000204020403FC020400040004000C03FC0AA
:1058A0003C0003C03C003FC0000020403FC00C4013
:1058B00023003FC020001F802040204020401F8048
:1058C000000020403FC024402400180000001F803A
:1058D0002140214020E01FA0000020403FC0244084
:1058E000260019C0004018C02440244022403180C6
:1058F0000000300020403FC0204030000000200069
:105900003F80004000403F80200020003E0001C05A
:10591000070038002000380007C03C0007C03800EE
:105920000000204039C0060039C02040000020009F
:10593000384007C0384020000000304021C02640D9
:10594000384020C00000000000007FE040204020E0
:105950000000000070000C00038000400000000008
:10596000402040207FE000000000000020004000B8
:1059700020000000000000100010001000100010B7
:1059800000100000000040000000000000000000C7
:1059900002800540054003C0004020003FC0044095
:1059A00004400380000000000380044004400640DF
:1059B000000000000380044024403FC0004000007D
:1059C00003800540054003400000000004401FC064
:1059D000244024402000000002E0055005500650FD
:1059E000042020403FC00440040003C000400000E9
:1059F000044027C000400000000000100010041008
:105A000027E00000000020403FC00140070004C024
:105A10000440204020403FC000400040000007C03C
:105A2000040007C0040003C00000044007C0044095
:105A3000040003C0004000000380044004400380D1
:105A40000000041007F00450044003800000000030
:105A500003800440045007F00010044007C00240D7
:105A6000040004000000000006400540054004C09A
:105A70000000000004001F800440004000000400FB
:105A800007800040044007C000400400070004C035
:105A9000018006000400060001C0070001C00600E6
:105AA0000000044006C0010006C0044000000410CD
:105AB000071004E00180060004000000044005C057
:105AC0000640044000000000000004007BE040208D
:105AD0000000000000000000FFF0000000000000D7
