:020000040800F2
:10000000000400205301000861010008630100089A
:100010006501000867010008690100080000000090
:100020000000000000000000000000006B0100085C
:100030006D010008000000006F0100087101000858
:1000400073010008730100087301000873010008C0
:1000500073010008730100087301000873010008B0
:10006000651300088B130008B7130008730100081C
:100070007301000873010008730100087301000890
:100080007301000873010008730100087301000880
:10009000730100087301000873010008531400087D
:1000A0007301000873010008730100087301000860
:1000B00073010008D51400087301000873010008DB
:1000C0007301000873010008730100087301000840
:1000D000730100085D0F00080F100008730100088D
:1000E0007301000873010008730100087301000820
:1000F0007301000873010008730100087301000810
:1001000073010008730100087301000873010008FF
:100110007301000873010008AD15000873010008A1
:1001200073010008730100087301000873010008DF
:10013000DFF80CD003F0CAFE0048004709020008AF
:10014000B809002030BF72B662B680F308887047E5
:10015000704708488047084981F3088807480047E6
:10016000FEE7FEE7FEE7FEE7FEE7FEE7FEE7FEE767
:10017000FEE7FEE751010008B80900203101000840
:100180002DE9FC4704460D46164601274FF00008AE
:100190004FF000092946204600F0EEFC8146FFA3FF
:1001A0001022CDE900231346322211465A2003F0D3
:1001B00036FC1023009304233A463221732003F0C7
:1001C0007BFBF9A31022CDE90023134632221E2126
:1001D0005A2003F024FC10230093042342461E21DE
:1001E000732003F069FBB9F1000F03DA0027C9F1AE
:1001F000000800E0C8461FFA88F23146F8B203F062
:10020000E1FC0020BDE8FC872DE9F04F89B0002417
:100210000025002601274FF00108092000F036FED6
:100220004FF461234FF47A322421482000F02AFF52
:10023000482000F0C5FC01F0E8FC01F00BF803F0E9
:100240002DFC41F61F41642001F08CF903F0A4FC61
:10025000D8488088A0F5D041043905D1F020D5498F
:1002600008804FF4A07048804FF47840D24908804D
:10027000D2A31022CDE900231346C8221E21282034
:1002800003F0CDFBCFA31022CDE900231346C822F3
:100290003C21282003F0C3FBCCA31022CDE900238E
:1002A0001346C8225A21282003F0B9FBC9A3102203
:1002B000CDE900231346C8221E21822003F0AFFBA4
:1002C000C6A31022CDE900231346C8223C21822078
:1002D00003F0A5FBC3A31022CDE900231346C822D7
:1002E0005A21822003F09BFBBFA31022CDE90023FB
:1002F0001346C8228221084603F091FBB9A31022BD
:10030000CDE900231346C822A021822003F087FBF9
:10031000B2A31022CDE900231346C822BE218220B9
:1003200003F07DFBB3A31022CDE900231346C822BE
:100330004FF482713C2003F072FB1F209E4908801D
:100340005023622236211E2003F084F94FF6FF70FD
:10035000994908806E23622254211E2003F07AF905
:10036000B42362229A211E2003F074F9D223622260
:10037000B8211E2003F06EF95023BC2236217820CC
:1003800003F068F96E23BC225421782003F062F94F
:10039000B423BC229A21782003F05CF9D223BC223A
:1003A000B821782003F056F9FA236222E0211E20BA
:1003B00003F050F94FF48C736222FE211E2003F0EB
:1003C00049F9CBE28D48008810F4004F02D000209C
:1003D0008A490880002000F06CFF0546142000F0D8
:1003E00020FC002DEDD0012D78D0022D08D0042D59
:1003F00005D1002E02DD701EC6B200E007267FE0A8
:100400001F206D4908807EB905220021084603F0AF
:10041000D9FB7BA31022CDE900231346C822FA2181
:100420003C2003F0FCFA63E0012E0FD105220021ED
:10043000012003F0C7FB6EA31022CDE90023134671
:10044000C822FA213C2003F0EAFA51E0022E0FD133
:1004500005220121002003F0B5FB6AA31022CDE99B
:1004600000231346C822FA213C2003F0D8FA3FE0CB
:10047000032E0FD105220121084603F0A3FB62A33E
:100480001022CDE900231346C822FA213C2003F0B4
:10049000C6FA2DE0042E0FD164220221002003F0C1
:1004A00091FB5AA31022CDE900231346C822FA215A
:1004B0003C2003F0B4FA1BE0052E10D16422022187
:1004C000012003F07FFB52A31022CDE90023134645
:1004D000C822FA213C2003F0A2FA09E009E0062E26
:1004E00003D100274FF0000802E0072E00D10027BB
:1004F00006E0072E02DA701CC6B200E0002600BF3C
:1005000000BF002E43D11F202B49088050236222B8
:1005100036211E2003F09EF84FF6FF702649088012
:100520006E23622254211E2003F094F8B423622229
:100530009A211E2003F08EF8D2236222B8211E20B9
:1005400003F088F85023BC223621782003F082F88B
:100550006E23BC225421782003F07CF8B423BC2203
:100560009A21782003F076F8D223BC22B821782093
:1005700003F070F8FA236222E0211E2003F06AF8EB
:100580004FF48C736222FE211E2003F063F8012ECB
:100590007ED11F20084908806E233BE070696420EB
:1005A0006469723D000000007069642073746570B6
:1005B0003D000000AC010020180000204D6F746F5A
:1005C0007231000072696768740000006C656674BF
:1005D000000000004D6F746F72320000646F776E20
:1005E0000000000075700000536C696465776179E4
:1005F000320000004154554F00000000040000206C
:1006000031000000330000003400000031370000EA
:1006100031380000622254211E2003F01BF84FF6EF
:10062000FF70FF4908805023622236211E2003F00C
:1006300011F8B42362229A211E2003F00BF8D22372
:100640006222B8211E2003F005F85023BC22362177
:10065000782002F0FFFF6E23BC225421782002F0A4
:10066000F9FFB423BC229A21782002F0F3FFD223B1
:10067000BC22B821782002F0EDFFFA236222E021AB
:100680001E2002F0E7FF4FF48C736222FE2100E08F
:1006900002E01E2002F0DEFF022E43D11F20E049BF
:1006A00008805023BC223621782002F0D3FF4FF679
:1006B000FF70DB4908805023622236211E2002F0A1
:1006C000C9FF6E23622254211E2002F0C3FFB4230F
:1006D00062229A211E2002F0BDFFD2236222B8219D
:1006E0001E2002F0B7FF6E23BC225421782002F0B6
:1006F000B1FFB423BC229A21782002F0ABFFD223B1
:10070000BC22B821782002F0A5FFFA236222E02162
:100710001E2002F09FFF4FF48C736222FE211E20E8
:1007200002F098FF032E43D11F20BD4908806E239D
:10073000BC225421782002F08DFF4FF6FF70B8499B
:1007400008805023622236211E2002F083FF6E2390
:10075000622254211E2002F07DFFB42362229A21DE
:100760001E2002F077FFD2236222B8211E2002F061
:1007700071FF5023BC223621782002F06BFFB42396
:10078000BC229A21782002F065FFD223BC22B82136
:10079000782002F05FFFFA236222E0211E2002F09F
:1007A00059FF4FF48C736222FE211E2002F052FF8B
:1007B000042E43D11F209A490880B423BC229A21D9
:1007C000782002F047FF4FF6FF70954908805023CC
:1007D000622236211E2002F03DFF6E236222542148
:1007E0001E2002F037FFB42362229A211E2002F05D
:1007F00031FFD2236222B8211E2002F02BFF5023AA
:10080000BC223621782002F025FF6E23BC22542121
:10081000782002F01FFFD223BC22B821782002F0FA
:1008200019FFFA236222E0211E2002F013FF4FF489
:100830008C736222FE211E2002F00CFF052E43D194
:100840001F2077490880D223BC22B821782002F0EB
:1008500001FF4FF6FF707249088050236222362153
:100860001E2002F0F7FE6E23622254211E2002F0A9
:10087000F1FEB42362229A211E2002F0EBFED22365
:100880006222B8211E2002F0E5FE5023BC22362150
:10089000782002F0DFFE6E23BC225421782002F083
:1008A000D9FEB423BC229A21782002F0D3FEFA2389
:1008B0006222E0211E2002F0CDFE4FF48C736222F2
:1008C000FE211E2002F0C6FE072E44D11F205449EF
:1008D00008804FF48C736222FE211E2002F0BAFEC3
:1008E0004FF6FF704E4908805023622236211E20A9
:1008F00002F0B0FE6E23622254211E2002F0AAFEF6
:10090000B42362229A211E2002F0A4FED223622286
:10091000B8211E2002F09EFE5023BC2236217820F2
:1009200002F098FE6E23BC225421782002F092FE41
:10093000B423BC229A21782002F08CFED223BC2260
:10094000B821782002F086FEFA236222E0211E20E0
:1009500002F080FE02E00A2000F063F9002F7FF42D
:1009600031AD4FF6FF7001F03BF94FF478402C4960
:100970000880C2E04FF4FA7000F053F9601CC4B272
:10098000052C08D100242748006808B9012000E0A0
:100990000020244908602448008810F4004FE8D063
:1009A0004FF6FF7001F01CF91F480088C0B2089094
:1009B0004FF0000909E01D4810F8090003A921F8CB
:1009C000190009F1010000F0FF0908988145F2DBE8
:1009D000002015490880BDF80C0000F0FF0ABDF8A2
:1009E0000E0000F0FF0BBDF81000BDF8121000EB78
:1009F000012080B20290BAF1000F3BD10CA310226B
:100A0000CDE900231346C82264213C2003F007F8F7
:100A1000BBF1010F23D10AA31022CDE9002317E077
:100A20001800002094812142040000201C000020B6
:100A30004D6F746F723A486F72697A6F6E616C00B5
:100A40004D6F746F725F4469723A204C6566740032
:100A50001346C82274213C2002F0E1FF2CE02BA3B6
:100A60001022CDE900231346C82274213C2002F055
:100A7000D6FF21E029A31022CDE900231346C82286
:100A800064213C2002F0CBFFBBF1010F0AD127A368
:100A90001022CDE900231346C82274213C2002F025
:100AA000BEFF09E025A31022CDE900231346C8228A
:100AB00074213C2002F0B3FF24A31022CDE90023CF
:100AC0001346C82284213C2002F0A9FF01231022F2
:100AD000CDE90023142384212D20029A02F03BFF4C
:100AE00051465846029A03F06DF81B48006808B951
:100AF000012000E0002018490860B8F1000F7FF4E1
:100B000039AF002009B0BDE8F08F00004D6F746F61
:100B1000725F4469723A5269676874004D6F746F0E
:100B2000723A566572746963616C00004D6F746F40
:100B3000725F4469723A646F776E00004D6F746F34
:100B4000725F4469723A2020757000004D6F746FB7
:100B5000725F537465703A009401234210B50446E5
:100B60002821204603F0A1F80820A0600620E060BC
:100B700000202061606210BD70B502461160D2E9AC
:100B80000004001BD0615469D069001B9468604365
:100B9000D569D46804FB05002C460226556906FB7E
:100BA000154495692C44156905FB0403506A1844E3
:100BB000506250699061D0695061506A70BD000008
:100BC0004FF0E021096921F004014FF0E0221161AA
:100BD0000146C21700EB5272D2101F4B1A70194611
:100BE00009784FF47A7251439A1C118070471A4A5F
:100BF000127842434FF0E0235A6100229A610122A9
:100C00001A6100BF4FF0E022116911F0010F02D00C
:100C100011F4803FF6D000224FF0E0231A619A6170
:100C200070470D4A921C128842434FF0E0235A61EC
:100C300000229A6101221A6100BF4FF0E02211697F
:100C400011F0010F02D011F4803FF6D000224FF0D6
:100C5000E0231A619A61704700000020AC4A0A4004
:100C60000243AC4B1A607047072323EA00021202CA
:100C7000A84B1B1D19684FF6FF031940A64B1943DB
:100C800011434FF0E023C3F80C1D70472DE9F047E6
:100C900004460D4616461F463046F11706EB917185
:100CA0004FEAA109F11706EB91718910A6EB8101BA
:100CB00001F0FF0A042101EBCA0000F0FF0A3846E8
:100CC000FFF7D2FFC7F1040004FA00F80F20384103
:100CD000284040EA080808F00F08202E09DA8F485B
:100CE00000680121B14008434FF0E021C1F8000144
:100CF0000BE08A48001D0168A6F120020120904007
:100D000001434FF0E020C0F80411854850F8290055
:100D100008FA0AF10143824840F82910BDE8F0873B
:100D200070B50D46CE1701EB9676B310CE1701EBDA
:100D30009676B610A1EB8606B606340E794DAD69EF
:100D400045F00105774EB5614FEAB63555F8236099
:100D50000F25A540AE43744D45F8236055F8235048
:100D600000FA04F63543704E46F823506F4D2E6856
:100D700001258D402E436C4D083DC5F8006412F0EE
:100D8000010F09D0694D0C352E6801258D402E4389
:100D9000654D083DC5F80C6412F0020F09D0634D93
:100DA00008352E6801258D402E435F4D083DC5F85E
:100DB000086470BD00B500205A490861C86014205D
:100DC000486100208861C8610846006840F0010061
:100DD000086008464068564908405249486008463D
:100DE0000068544908404F4908600846006820F4EC
:100DF000802008600846406820F4FE00486000201B
:100E0000886000214FF00060FFF728FF00BD10B59B
:100E100040480830006840F004004FF0E021C1F87D
:100E2000100D4048C06940F080503E49C8614248BA
:100E3000406840F48070404948600846006840F0CF
:100E4000040008600846006840F002000860FFF7F0
:100E500079F910BD3048001D2E49091D0860704702
:100E60000146084649062F4A926942F001022D4B7D
:100E70009A612D4A083A526822F0E0622A4B083BF8
:100E80005A601A4652680A435A60704730B50446A1
:100E90000025FFF78FFF2348006840F48030214988
:100EA000086000BF1F480068400CFBD04FF4806012
:100EB0001C494860A01EC4B20846406840EA84400D
:100EC00048600846406840F4803048601B4800682D
:100ED00040F03200194908601248006840F0807004
:100EE0001049086000BF0F480068400EFBD00D4855
:100EF000406840F002000B49486005E0094840683E
:100F0000C0F3870505F00305022DF7D130BD0000C1
:100F100080FFFF1F08ED00E00000FA0500E100E09F
:100F200000E400E00010024008000140000401401D
:100F30000000FFF8FFFFF6FE0070004000200240B6
:100F4000014600BF704700BFB74A128812F0400F39
:100F5000FAD0C2B2B44B1B1D1A807047B24909883F
:100F600011F0200F52D0B049091D0988C8B24FF0C6
:100F70004021A1F8040400BFAC49098811F0400FDA
:100F8000FAD0AB49098811F4004F3FD1A84909882C
:100F900011F4804F20D00A2803D00021A44A1180E8
:100FA00034E0A349098841F40041A14A11800D2190
:100FB0009E4A121D118000BF9C49098811F0400F04
:100FC000FAD00A21994A121D118000BF9749098859
:100FD00011F0400FFAD019E00D2806D19449098884
:100FE00041F48041924A118010E091490988C1F38F
:100FF0000D01904A50548E490988491C8C4A118031
:1010000011460988C72901DD0021118070478749F1
:10101000098811F0200F34D08449091D0988C8B20D
:101020008549098811F4004F2BD18349098811F4AF
:10103000804F0CD00A2803D000217F4A118020E085
:101040007D49098841F400417B4A118019E00D284F
:1010500006D17949098841F48041774A118010E02E
:1010600075490988C1F30D01744A505472490988C1
:10107000491C714A118011460988C72901DD0021E8
:10108000118070472DE9FC5F04460D4616461F4649
:10109000300102F0D3FE8246694904FB01F002F000
:1010A000CDFE8346514602F093FE8046404602F054
:1010B000CAFE1FFA80F9484602F0C0FE4146009081
:1010C00002F04AFE83464FF0834102F04EFE824614
:1010D00002F0B9FE01904FEA0919019848441FFA3D
:1010E00080F95848806940F00400564988610846F4
:1010F000806940F4804088615348006820F47F6034
:101100005249C1F804080846D0F8040840F40B60BE
:10111000C1F804084B48C06840F480404949C860A1
:101120000846C06820F48040C8604948A0F8089884
:101130003D480C30008842F20C0108434449A1F8B4
:101140000C080846B0F80C0840F02000A1F80C0884
:101150000223252203210846FFF798FD380102F0FB
:101160006DFE8246364905FB01F002F067FE8346BC
:10117000514602F02DFE8046404602F064FE1FFA02
:1011800080F9484602F05AFE4146009002F0E4FD24
:1011900083464FF0834102F0E8FD824602F053FEA1
:1011A00001904FEA0919019848441FFA80F925482F
:1011B000C06940F400302349C8612448D0F80008D1
:1011C00020F47F402149C1F800080846D0F8000803
:1011D00040F40B40C1F800081A48006940F40030A0
:1011E000184908610846006920F4003008614FF092
:1011F0004020A0F808940D480C30008842F20C0101
:1012000008434FF04021A1F80C040846B0F80C0444
:1012100040F02000A1F80C040123262203210846F7
:10122000FFF734FDBDE8FC9F00380140004400405A
:10123000040000201C00002006000020E400002024
:1012400040420F000010024004080140000001402D
:10125000003001403948806940F004003749886116
:101260000846806940F0400088613548006820F0F9
:101270000F003449C1F800080846D0F8000840F0D3
:101280000800C1F80008304800683049084030497B
:10129000C1F800082C4800682E4908432C49C1F8C1
:1012A00000080846D0F80C0840F01C00C1F80C08F3
:1012B000704710B5044614B101202749087026482C
:1012C000007828B32548006858B12448001F0068FA
:1012D00038B122480838006818B121480068012850
:1012E00016D11420FFF79DFC00201B4908701B48F5
:1012F000006808B9012010BD1848001F006808B92F
:101300000220F8E716480068012815D10420F2E70A
:101310001248006801280FD11048001F00680128FA
:101320000AD10E4808380068012805D10C48006829
:1013300010B90120084908700020DCE700100240C5
:10134000000801400000014000180140FF00F0FFCC
:1013500000100140008808000C000020100123420A
:101360000001214210B50A20FFF75BFC52480068DB
:1013700038B95248006808B9012000E000204F4900
:10138000086004204E49086010BD10B50A20FFF720
:1013900048FC4948001D006848B947488C3000683F
:1013A00008B9012000E0002043498C310860082082
:1013B0004349086010BD10B50A20FFF732FC3E48D3
:1013C0000830006888B93D48006808B9012000E08D
:1013D00000203A4908603B48D0F8940108B9012040
:1013E00000E0002034498C31086010203449086046
:1013F00010BD10B5FFF72EFF022200210846FFF7AF
:101400008FFC012202210420FFF78AFC0122032124
:101410000420FFF785FC012204210846FFF780FC29
:101420000223062203211846FFF730FC022308227C
:1014300019461846FFF72AFC022309220121184603
:10144000FFF724FC02230A2200211846FFF71EFCA6
:1014500010BD1B48006810F4807F1AD01A4800782D
:10146000022816DA1848007850B900201749086099
:1014700001201749C1F8980110490839086003E0B4
:1014800000200E49083908600F480078401C0E49BA
:1014900008704FF480700A490860704710B5022246
:1014A00008210020FFF73CFC0223172200210846F8
:1014B000FFF7ECFB10BD000008012342948121429C
:1014C00014040140000023420D00002098812242B4
:1014D000008022424B48008810F0010F39D04A4862
:1014E000008850B149480068C0434949C1F890019B
:1014F00045480088401E444908804648008858B145
:10150000424808300068C0434149C1F89801414849
:101510000088401E3F4908803F48008850B13F483E
:101520000068C0433E49C1F8B4013B480088401EF2
:10153000394908803B48008858B13848001D006888
:10154000C0433749C1F8B80136480088401E3549C4
:1015500008802C48008820F001004FF08041A1F85D
:101560001004704770B504460D462F48C06940F01E
:1015700002002D49C86123481C3004808804A0F86B
:101580002854B0F80C0440F001008904A1F80C04C0
:101590000846B0F8000440F00100A1F8000402235E
:1015A0001D2203210120FFF771FB70BD1F48008A37
:1015B00010F0010F02D000201D4908701B48008A5E
:1015C00020F0010019490882704770B504460D46A5
:1015D0001548C06940F010001349C861134884855C
:1015E0000585808940F001001049888108460088FF
:1015F00040F0010008800223362203210120FFF77A
:1016000045FB70BD100400400E00002090012142F7
:10161000000021421000002012000020B48121426D
:101620000080214214000020001002400010004001
:1016300016000020F94908807047F849891C088085
:101640007047F648801C00887047F44A10804FF0BD
:10165000D842A2F80018704710B504462046FFF79C
:10166000E9FF0520FFF7C3FAFFF7EBFF10BDEC48D9
:10167000C079EA4908807047E849891C08807047AA
:1016800030B5014601F01F04C1F34513CA0AE50253
:1016900005EB43151544A8B230BD00BF0100A0F111
:1016A0000102D0B2FAD1704710B503460C46DC48AF
:1016B0008088A0F51341413905D0D9488088A0F52C
:1016C000D041043914D1D649087AFFF7B3FF181274
:1016D000FFF7B3FFD8B2FFF7B0FFD149487AFFF761
:1016E000A9FF2012FFF7A9FFE0B2FFF7A6FF12E063
:1016F000CB488079012804D1C9480088401EC01A0F
:1017000083B2C749087A1946FFF79FFFC449487A50
:101710002146FFF79AFF10BD2DE9F04104460D4622
:1017200000260027B046BE480088A04203DDBC4822
:101730004088A84202DC0020BDE8F081294620460E
:10174000FFF7B2FFB6488088A0F51341413905D0B4
:10175000B3488088A0F5D041043903D12E20FFF78B
:1017600069FF02E02220FFF765FFAD488088A0F501
:101770001341203902D10220FFF78FFFA748801CB8
:10178000008800B100260220FFF787FFA348801CD5
:101790000688A3488088A0F51341413909D1022069
:1017A000FFF77BFF9D48801CB0F80080F7B23F0236
:1017B00008E09B488088A0F5D041043902D19748C1
:1017C000801C068896488088A0F51341253917D0DB
:1017D00093488088A0F58A41353911D09048808897
:1017E000A0F58A4131390BD08D488088A0F5094198
:1017F000893905D08A488088A0F53541053901D15D
:10180000304699E786488088A0F51341413907D1D1
:10181000F012C002B91240EA411040EAE8208BE71A
:101820003046FFF72DFF87E700B57D488088A0F59B
:101830001341413905D07A488088A0F5D041043958
:1018400003D12920FFF7F6FE04E040F273110720D0
:10185000FFF7FBFE00BD00B571488088A0F513417D
:10186000413905D06E488088A0F5D041043903D1B4
:101870002820FFF7DFFE03E000210720FFF7E5FE49
:1018800000BD70B503460024002565488079012815
:101890001ED163488088A0F5D041043918D0082BA8
:1018A00015D2DFE803F00406080A0C0E1012062316
:1018B0000DE007230BE0042309E0052307E00123E3
:1018C00005E0002303E0032301E0022300BF00BF83
:1018D00053488088A0F51341413905D0504880888D
:1018E000A0F5D04104397CD1082B1CD2DFE803F0ED
:1018F0000406090C0F12151800BF14E044F0800410
:1019000011E044F040040EE044F0C0040BE044F069
:10191000200408E044F0600405E044F0A00402E084
:1019200044F0E00400BF00BF362544F008043C4802
:101930008088A0F5D041043901D144F00204214649
:101940002846FFF782FE14F0200F0DD0344800889F
:1019500033494988884214DA31480688408830493A
:101960000880084646800CE02D4800882C494988AC
:10197000884206DD2A4806884088294908800846AA
:1019800046802749087AFFF755FE0020FFF755FEED
:101990000020FFF752FE22490988491EC1F30F209B
:1019A000FFF74BFE1E490988491EC8B2FFF745FEE6
:1019B0001B49487AFFF73EFE0020FFF73EFE00205D
:1019C000FFF73BFE16494988491EC1F30F20FFF778
:1019D00034FE13494988491EC8B2FFF72EFE37E08E
:1019E000FFE7082B21D2DFE803F004070A0D0F12EE
:1019F000151D44F0300418E044F0100415E044F0E4
:101A0000200412E000BF10E044F038040DE044F080
:101A100028040AE044F0180407E00000FE07006C08
:101A2000AC01002044F0080400BF00BFFF488088DC
:101A3000A0F50941893904D1112546F2400004433B
:101A400002E0032544F4805421462846FFF7FDFDBB
:101A500070BD30B504460D4629462046FFF724FEEA
:101A6000FFF705FEF2480088F249088030BD30B526
:101A700003460C461546ED488088A0F513414139D0
:101A800005D0EA488088A0F5D041043914D1E7494F
:101A9000087AFFF7CFFD1812FFF7CFFDD8B2FFF796
:101AA000CCFDE249487AFFF7C5FD2012FFF7C5FDDE
:101AB000E0B2FFF7C2FD12E0DC488079012804D1D2
:101AC000DA480088401EC01A83B2D849087A1946FD
:101AD000FFF7BBFDD549487A2146FFF7B6FDD3484D
:101AE000C079D449891E08804FF0D840A0F800582A
:101AF00030BD10B50446002C3DD1CC498871F02092
:101B000008804FF4A070488008468088A0F51341F3
:101B1000413905D0C5488088A0F5D041043914D199
:101B20002C20C249C8712A2008722B20487208460E
:101B30008088A0F5D04104394ED14FF4A070BB4944
:101B400008804FF4F070488046E0B8488088A0F5DF
:101B50000941893907D12220B449C8714E20087241
:101B60004F20487238E02220B049C8712020087206
:101B70002120487230E0AD488088A0F5D04104397A
:101B80002AD00120A94988714FF4A0700880F02064
:101B9000488008468088A0F51341413907D12C20A0
:101BA000A249C8712A2008722B20487214E09F486D
:101BB0008088A0F50941893907D122209B49C87145
:101BC0004F2008724E20487206E022209749C871C3
:101BD00021200872202048720020FFF752FE10BD1D
:101BE00070B5044600269148058840884543002189
:101BF0000846FFF759FDFFF73AFD00BF02E08D48A8
:101C00000480761CAE42FAD370BD10B58A48406994
:101C100040F48070884948610846806940F00800B7
:101C200088610846806940F0200088610846806924
:101C300040F0400088610846806940F48070886107
:101C40007E48006820F00F007D49C1F8000C08466E
:101C5000D0F8000C40F00300C1F8000C794800688F
:101C6000794908407949C1F8040476480068784900
:101C700008437649C1F804040846D0F8000400F08F
:101C8000FF20C1F800040846D0F8000440F0BB1063
:101C9000C1F800040846D0F804080020C1F8040880
:101CA0000846D0F8040840F0BB30C1F804080846E4
:101CB000D0F8000820F07040C1F800080846D0F8BD
:101CC000000840F03040C1F800086248406820F445
:101CD0007020604948600846406840F43020486001
:101CE0000846006820F00F0008600846006840F0D1
:101CF0000B00086000204FF020418861C861C1F8E6
:101D00001C010846806940F480508861084680695B
:101D100040F4804088610846806940F01000886186
:101D20000846C069C8610846C06940F00100C86142
:101D30000846C06940F47060C8610846D0F81C01CC
:101D4000C1F81C010846D0F81C01C1F81C01084666
:101D5000D0F81C0140F44070C1F81C0108468069AD
:101D600040F0010088613220FEF75BFF0121002076
:101D7000FFF76BFC3220FEF754FF0020FFF76CFCEE
:101D80002A49888008468088FF280ADB0846808820
:101D9000A0F57F41FF3904D024488088B0F5134F67
:101DA0005CD1D320FFF746FCFFF74BFCFFF749FC63
:101DB000FFF747FC1D498880084680880006000C14
:101DC0008880FFF73EFC19498988084317498880B5
:101DD00008468088A0F51341413918D0BF20FFF78D
:101DE00029FCFFF72EFCFFF72CFCFFF72AFCFFF77E
:101DF00028FC0E498880084680880006000C8880F0
:101E0000FFF71FFC0949898808430849888007486B
:101E10008088A0F51341413920D004488088A0F57E
:101E2000D04104391AD049F2413015E0AC0100200C
:101E3000180000200008006C00100240000C014057
:101E4000000001400414014000F0FF0000100140B8
:101E5000BB0B00BB00200140FF498880FE48808802
:101E6000A0F5134141397ED1CF20FFF7E3FB0020DD
:101E7000FFF7E3FBC120FFF7E0FB3020FFF7DDFBBE
:101E8000ED20FFF7D7FB6420FFF7D7FB0320FFF718
:101E9000D4FB1220FFF7D1FB8120FFF7CEFBE82017
:101EA000FFF7C8FB8520FFF7C8FB1020FFF7C5FB35
:101EB0007A20FFF7C2FBCB20FFF7BCFB3920FFF7EE
:101EC000BCFB2C20FFF7B9FB0020FFF7B6FB34204A
:101ED000FFF7B3FB0220FFF7B0FBF720FFF7AAFBE9
:101EE0002020FFF7AAFBEA20FFF7A4FB0020FFF762
:101EF000A4FB0020FFF7A1FBC020FFF79BFB1B20EA
:101F0000FFF79BFBC120FFF795FB0120FFF795FB37
:101F1000C520FFF78FFB3020FFF78FFB3020FFF746
:101F20008CFBC720FFF786FBB720FFF786FB362028
:101F3000FFF780FB4820FFF780FB3A20FFF77AFB92
:101F40005520FFF77AFBB120FFF774FB0020FFF765
:101F500074FB1A20FFF771FBB620FFF76BFB0A201A
:101F6000FFF76BFB00E097E0A220FFF766FBF22093
:101F7000FFF760FB0020FFF760FB2620FFF75AFB0E
:101F80000120FFF75AFBE020FFF754FB0F20FFF77B
:101F900054FB2A20FFF751FB2820FFF74EFB0820B7
:101FA000FFF74BFB0E20FFF748FB0820FFF745FB30
:101FB0005420FFF742FBA920FFF73FFB4320FFF728
:101FC0003CFB0A20FFF739FB0F20FFF736FB002010
:101FD000FFF733FB0020FFF730FB0020FFF72DFB5E
:101FE0000020FFF72AFBE120FFF724FB0020FFF78A
:101FF00024FB1520FFF721FB1720FFF71EFB07200E
:10200000FFF71BFB1120FFF718FB0620FFF715FB5E
:102010002B20FFF712FB5620FFF70FFB3C20FFF7AA
:102020000CFB0520FFF709FB1020FFF706FB0F2034
:10203000FFF703FB3F20FFF700FB3F20FFF7FDFA10
:102040000F20FFF7FAFA2B20FFF7F4FA0020FFF732
:10205000F4FA0020FFF7F1FA0120FFF7EEFA3F2033
:10206000FFF7EBFA2A20FFF7E5FA0020FFF7E5FA81
:102070000020FFF7E2FA0020FFF7DFFAEF20FFF77A
:10208000DCFA1120FFF7D6FA7820FEF7CAFD2920E6
:10209000FFF7D0FA01F012BA6F488088A0F5D0415E
:1020A00004397ED11120FFF7C5FA1420FEF7B9FDDF
:1020B000D020FFF7BFFA0720FFF7BFFA4220FFF753
:1020C000BCFA1D20FFF7B9FAD120FFF7B3FA0020C0
:1020D000FFF7B3FA1A20FFF7B0FA0920FFF7ADFABD
:1020E000D220FFF7A7FA0120FFF7A7FA2220FFF777
:1020F000A4FAC020FFF79EFA1020FFF79EFA3B20BB
:10210000FFF79BFA0020FFF798FA0220FFF795FAF5
:102110001120FFF792FAC520FFF78CFA0320FFF792
:102120008CFAC820FFF786FA0020FFF786FA2520F0
:10213000FFF783FA2120FFF780FA0520FFF77DFAE9
:102140000020FFF77AFA0A20FFF777FA6520FFF7F9
:1021500074FA2520FFF771FA7720FFF76EFA502006
:10216000FFF76BFA0F20FFF768FA0020FFF765FA18
:10217000F820FFF75FFA0120FFF75FFAFE20FFF774
:1021800059FA0020FFF759FA0220FFF756FA2020EB
:10219000FFF750FA3620FFF74DFA0820FFF74DFA07
:1021A00000E02AE03A20FFF745FA5520FFF745FA0C
:1021B0002B20FFF73FFA0020FFF73FFA0020FFF740
:1021C0003CFA0120FFF739FA3F20FFF736FA2A20C0
:1021D000FFF730FA0020FFF730FA0020FFF72DFA62
:1021E0000120FFF72AFADF20FFF727FA7820FEF711
:1021F00018FD2920FFF71EFA4CE717488088A0F544
:10220000134125397DD147F6F001E520FFF71DFA8E
:102210004FF480710120FFF718FA4FF4E0610220BB
:10222000FFF713FA41F230010320FFF70EFA002105
:102230000420FFF70AFA40F202210820FFF705FA0E
:1022400000210920FFF701FA00210A20FFF7FDF91C
:1022500000210C2002E00000AC010020FFF7F5F99E
:1022600000210D20FFF7F1F900210F20FFF7EDF914
:1022700000211020FFF7E9F907211120FFF7E5F908
:1022800000211220FFF7E1F900211320FFF7DDF90B
:1022900000210720FFF7D9F941F290611020FFF7E4
:1022A000D4F940F227211120FFF7CFF99D21122008
:1022B000FFF7CBF94FF4C8511320FFF7C6F92521DA
:1022C0002920FFF7C2F90D212B20FFF7BEF90721C6
:1022D0003020FFF7BAF940F203313120FFF7B5F9AA
:1022E00003213220FFF7B1F940F206213520FFF734
:1022F000ACF908213620FFF7A8F940F20641372053
:1023000000E05CE0FFF7A1F94FF441713820FFF7DE
:102310009CF907213920FFF798F940F202613C202F
:10232000FFF793F908213D20FFF78FF90021502096
:10233000FFF78BF9EF215120FFF787F90021522099
:10234000FFF783F940F23F115320FFF77EF94FF476
:1023500027416020FFF779F901216120FFF775F926
:1023600000216A20FFF771F900218020FFF76DF945
:1023700000218120FFF769F900218220FFF765F92C
:1023800000218320FFF761F900218420FFF75DF928
:1023900000218520FFF759F910219020FFF755F90A
:1023A0004FF4C0619220FFF750F940F2331107203B
:1023B000FFF74BF922210020FFF747F96AE6FF48B3
:1023C0008088A0F5134128397ED141F28F01EC209D
:1023D000FFF73BF941F23421EF20FFF736F94FF4D4
:1023E00080710120FFF731F94FF4E0610220FFF71F
:1023F0002CF941F230010320FFF727F900210420D6
:10240000FFF723F940F202210820FFF71EF900210F
:102410000920FFF71AF900210A20FFF716F9012118
:102420000C20FFF712F900210D20FFF70EF9002113
:102430000F20FFF70AF900211020FFF706F9072106
:102440001120FFF702F900211220FFF7FEF800210A
:102450001320FFF7FAF801210720FFF7F6F83220E2
:10246000FEF7DFFB41F290411020FFF7EEF840F25B
:1024700027211120FFF7E9F83220FEF7D2FB8A214D
:102480001220FFF7E2F83220FEF7CBFB4FF4D051D9
:102490001320FFF7DAF806212920FFF7D6F80D21DF
:1024A0002B20FFF7D2F83220FEF7BBFB00212020C3
:1024B000FFF7CBF800212120FFF7C7F83220FEF705
:1024C000B0FB0021302000E074E0FFF7BEF840F2DE
:1024D00004613120FFF7B9F840F205313220FFF7EF
:1024E000B4F800213520FFF7B0F840F60941362056
:1024F000FFF7ABF84FF401713720FFF7A6F840F271
:1025000001313820FFF7A1F840F207713920FFF7B9
:102510009CF800213C20FFF798F840F60A213D2066
:10252000FFF793F83220FEF77CFB00215020FFF7E5
:102530008CF8EF215120FFF788F800215220FFF797
:1025400084F840F23F115320FFF77FF84FF4274102
:102550006020FFF77AF801216120FFF776F800216B
:102560006A20FFF772F800218020FFF76EF8002143
:102570008120FFF76AF800218220FFF766F800212A
:102580008320FFF762F800218420FFF75EF8002126
:102590008520FFF75AF810219020FFF756F84FF4E6
:1025A000C0619220FFF751F840F233110720FFF786
:1025B0004CF86FE581488088A0F5134120397ED121
:1025C0000846FFF742F84FF480710120FFF73DF80D
:1025D0004FF4E0610220FFF738F841F230010320A8
:1025E000FFF733F800210420FFF72FF840F2022113
:1025F0000820FFF72AF800210920FFF726F800211C
:102600000A20FFF722F801210C20FFF71EF8002115
:102610000D20FFF71AF800210F20FFF716F83220DF
:10262000FEF7FFFA40F201110720FFF70EF8322003
:10263000FEF7F7FA4FF486511020FFF706F807214E
:102640001120FFF702F84FF488711220FEF7FDFF0A
:102650004FF430611320FEF7F8FF00212920FEF728
:10266000F4FF44F210012B20FEF7EFFF0021502071
:10267000FEF7EBFFEF215120FEF7E7FF002152208C
:10268000FEF7E3FF40F23F115320FEF7DEFF4FF469
:102690001C516020FEF7D9FF01216120FEF7D5FF14
:1026A00000216A20FEF7D1FF00218020FEF7CDFF38
:1026B00000218120FEF7C9FF0021822000E02CE0EC
:1026C000FEF7C3FF00218320FEF7BFFF0021842017
:1026D000FEF7BBFF00218520FEF7B7FF10219020F9
:1026E000FEF7B3FF00219220FEF7AFFF01219320F8
:1026F000FEF7ABFF4FF488719520FEF7A6FF00218F
:102700009720FEF7A2FF00219820FEF79EFF40F2DF
:1027100073110720FEF799FFBCE428488088A0F5D4
:10272000134131397DD141F21401E720FEF78DFFCD
:102730004FF480710120FEF788FF4FF400710220F2
:10274000FEF783FF41F238010320FEF77EFF40F2DF
:1027500002210820FEF779FF00210920FEF775FF0E
:1027600000210A20FEF771FF00210C20FEF76DFF0B
:1027700000210D20FEF769FF00210F20FEF765FF05
:1027800000211020FEF761FF07211120FEF75DFFF9
:1027900000211220FEF759FF00211320FEF755FFFC
:1027A000C820FEF73EFA41F290611020FEF74DFF7F
:1027B00040F227211120FEF748FF01E0AC01002084
:1027C0003220FEF72EFA0C211220FEF73EFF3220B7
:1027D000FEF727FA4FF400611320FEF736FF1121B0
:1027E0002920FEF732FF0B212B20FEF72EFF32208F
:1027F000FEF717FA00212020FEF727FF40F23F11D5
:102800002120FEF722FF00213020FEF71EFF4FF4AB
:1028100083713120FEF719FF00213220FEF715FFEA
:1028200000E067E04FF401713520FEF70EFF41F242
:102830000A613620FEF709FF40F207713720FEF7E4
:1028400004FF4FF483713820FEF7FFFE40F207715A
:102850003920FEF7FAFE40F202413C20FEF7F5FE79
:1028600040F60F413D20FEF7F0FE00215020FEF71C
:10287000ECFEEF215120FEF7E8FE00215220FEF78A
:10288000E4FE40F23F115320FEF7DFFE4FF41C51EF
:102890006020FEF7DAFE01216120FEF7D6FE00215E
:1028A0006A20FEF7D2FE00218020FEF7CEFE002136
:1028B0008120FEF7CAFE00218220FEF7C6FE00211D
:1028C0008320FEF7C2FE00218420FEF7BEFE002119
:1028D0008520FEF7BAFE10219020FEF7B6FE4FF4D9
:1028E000C0619220FEF7B1FE40F233110720FEF7DF
:1028F000ACFE81E4FF488088A0F5A84108397ED16C
:102900004FF480710120FEF7A0FE4FF4E061022039
:10291000FEF79BFE41F230010320FEF796FE0021F8
:102920000420FEF792FE40F207210820FEF78DFEFC
:1029300000210920FEF789FE00210A20FEF785FE0E
:1029400000210C20FEF781FE00210D20FEF77DFE08
:1029500000210F20FEF779FE1420FEF762F941F204
:10296000B0611020FEF771FE01211120FEF76DFE0F
:1029700001211720FEF769FE4FF49C711220FEF72B
:1029800064FE4FF400611320FEF75FFE0921292049
:10299000FEF75BFE09212A20FEF757FE0021A42046
:1029A000FEF753FE00215020FEF74FFEEF2151208D
:1029B000FEF74BFE00215220FEF747FE40F23F118A
:1029C0005320FEF742FE4FF41C516020FEF73DFEFF
:1029D00001216120FEF739FE00216A20FEF735FE55
:1029E00000218020FEF731FE00218120FEF72DFE20
:1029F00000218220FEF729FE0021832000E023E051
:102A0000FEF723FE00218420FEF71FFE0021852013
:102A1000FEF71BFE13219020FEF717FE00219220E7
:102A2000FEF713FE03219320FEF70FFE4FF488718B
:102A30009520FEF70AFE40F273110720FEF705FE0F
:102A40003220FEF7EEF8B9E4AA488088A0F5A85134
:102A500005397ED10720FEF7F8FD3220FEF7E1F8B8
:102A60004FF48E711220FEF7F0FD0121A420FEF735
:102A7000ECFD0F210820FEF7E8FD08210A20FEF7F3
:102A8000E4FD08210D20FEF7E0FD40F20771302043
:102A9000FEF7DBFD07213120FEF7D7FD40F2036191
:102AA0003220FEF7D2FD4FF4E0613320FEF7CDFD7A
:102AB00040F202213420FEF7C8FD02213520FEF746
:102AC000C4FD41F60F713620FEF7BFFD40F20771DD
:102AD0003720FEF7BAFD00213820FEF7B6FD0021B1
:102AE0003920FEF7B2FD40F207713A20FEF7ADFD46
:102AF00000213B20FEF7A9FD07213C20FEF7A5FDA4
:102B000000213D20FEF7A1FD3220FEF78AF80121C9
:102B10000720FEF79AFD01211720FEF796FD3220CF
:102B2000FEF77FF84FF4BD511020FEF78EFD40F206
:102B300017211120FEF789FD4FF48F711220FEF747
:102B400084FD4FF470611320FEF77FFD00212A20E1
:102B500000E093E0FEF779FD0A212920FEF775FDDC
:102B60004FF49F711220FEF770FD00215020FEF7F8
:102B70006CFDEF215120FEF768FD00215220FEF789
:102B800064FD40F23F115320FEF75FFD4FF41C51EE
:102B90006020FEF75AFD01216120FEF756FD00215D
:102BA0006A20FEF752FD00218020FEF74EFD002135
:102BB0008120FEF74AFD00218220FEF746FD00211C
:102BC0008320FEF742FD00218420FEF73EFD002118
:102BD0008520FEF73AFD13219020FEF736FD4FF4D5
:102BE00040719220FEF731FD05219320FEF72DFD67
:102BF00000219520FEF729FD00219720FEF725FDF5
:102C000000219820FEF721FD4FF480710120FEF78E
:102C10001CFD4FF4E0610220FEF717FD41F2380180
:102C20000320FEF712FD00210420FEF70EFD002117
:102C30000C20FEF70AFD00210F20FEF706FD002103
:102C40002020FEF702FD00212120FEF7FEFC2121BD
:102C50000720FEF7FAFC1420FDF7E3FF61210720AF
:102C6000FEF7F3FC1420FDF7DCFF40F273110720A0
:102C7000FEF7EBFC1420FDF7D4FF9AE41D48808892
:102C8000A0F5354105397ED10846FEF7DEFC00216E
:102C90000846FEF7DAFC00210846FEF7D6FC0021C4
:102CA0000846FEF7D2FC0121A420FEF7CEFC14203A
:102CB000FDF7B7FF4FF41C516020FEF7C6FC40F251
:102CC00002210820FEF7C1FC4FF405713020FEF709
:102CD000BCFC43F215713120FEF7B7FC40F20461F1
:102CE0003220FEF7B2FC40F616613320FEF7ADFC51
:102CF00002E00000AC01002042F211213420FEF776
:102D0000A4FC4FF4A8513520FEF79FFC48F2075170
:102D10003620FEF79AFC41F207413720FEF795FC7A
:102D200041F203413820FEF790FC20213920FEF7C4
:102D30008CFC1A219020FEF788FC00211020FEF761
:102D400084FC07211120FEF780FC00211220FEF7F1
:102D50007CFC00211320FEF778FC1420FDF761FFB6
:102D60004FF4E6611020FEF770FC40F2371111209D
:102D7000FEF76BFC1420FDF754FF4FF4DC711220BA
:102D8000FEF763FC00E086E01420FDF74AFF4FF4F5
:102D900070611320FEF759FC80212A20FEF755FCB4
:102DA00048212920FEF751FC1420FDF73AFF4FF48B
:102DB00080710120FEF749FC4FF4E0610220FEF72C
:102DC00044FC41F238010320FEF73FFC40F20221AF
:102DD0000820FEF73AFC00210A20FEF736FC00210D
:102DE0000C20FEF732FC00210D20FEF72EFC3021D6
:102DF0000E20FEF72AFC00215020FEF726FCEF21D2
:102E00005120FEF722FC00215220FEF71EFC40F26A
:102E10003F115320FEF719FC4FF41C516020FEF7C0
:102E200014FC01216120FEF710FC00216A20FEF74E
:102E30000CFC11219020FEF708FC4FF4C061922099
:102E4000FEF703FC40F202419320FEF7FEFB022155
:102E50009420FEF7FAFB1420FDF7E3FE0121072082
:102E6000FEF7F3FB1420FDF7DCFE61210720FEF7DF
:102E7000ECFB40F273110720FEF7E7FB0021202056
:102E8000FEF7E3FB00212120FEF7DFFB22210020DB
:102E9000FEF7DBFB12E3FF488088A0F545410539CA
:102EA0007DD10846FEF7D1FB00210846FEF7CDFB99
:102EB0001420FDF7B6FE00210846FEF7C6FB0021F0
:102EC0000846FEF7C2FB00210846FEF7BEFB0021C4
:102ED0000846FEF7BAFB0121A420FEF7B6FB14203A
:102EE000FDF79FFE4FF41C516020FEF7AEFB40F64D
:102EF00006010820FEF7A9FB40F203713020FEF71F
:102F0000A4FB01213120FEF7A0FB04213220FEF7B3
:102F10009CFB4FF481713320FEF797FB4FF4407117
:102F20003420FEF792FB40F203113520FEF78DFBB3
:102F30001F213620FEF789FB40F203713720FEF790
:102F400084FB01213820FEF780FB04213920FEF7A5
:102F50007CFB15219020FEF778FB4FF48261102056
:102F6000FEF773FB40F247211120FEF76EFB4FF492
:102F7000DE711220FEF769FB4FF460611320FEF74B
:102F800064FB7820FDF74DFE4FF480710120FEF7C1
:102F90005CFB4FF400710220FEF757FB00E050E0AD
:102FA00041F230010320FEF750FB08210A20FEF712
:102FB0004CFB00210C20FEF748FB20210E20FEF7E1
:102FC00044FB00210F20FEF740FB00212020FEF7EC
:102FD0003CFB00212120FEF738FB3D212A20FEF793
:102FE00034FB1420FDF71DFE2D212920FEF72DFBBB
:102FF00000215020FEF729FB4DF2EF015120FEF792
:1030000024FB00215220FEF720FB40F23F11532009
:10301000FEF71BFB00216120FEF717FB00216A2051
:10302000FEF713FB4FF440719220FEF70EFB0521D3
:103030009320FEF70AFB4FF480710720FEF705FB93
:103040003CE294488088A0F5094189397DD101216D
:103050000020FEF7FAFA4AF6A4010320FEF7F5FA7B
:1030600000210C20FEF7F1FA40F60C010D20FEF7CE
:10307000ECFA4FF42C510E20FEF7E7FAB0211E2097
:10308000FEF7E3FA42F63F310120FEF7DEFA4FF495
:10309000C0610220FEF7D9FA00211020FEF7D5FA10
:1030A00046F278011120FEF7D0FA00210520FEF744
:1030B000CCFA00210620FEF7C8FA4EF61C71162045
:1030C000FEF7C3FA03211720FEF7BFFA40F23321BF
:1030D0000720FEF7BAFA00210B20FEF7B6FA00210E
:1030E0000F20FEF7B2FA00214120FEF7AEFA0021D0
:1030F0004220FEF7AAFA00214820FEF7A6FA40F285
:103100003F114920FEF7A1FA00214A20FEF79DFA5F
:1031100000214B20FEF799FA4FF46F414420FEF74F
:1031200094FA00214520FEF790FA40F23F11462024
:10313000FEF78BFA40F207713020FEF786FA4FF463
:1031400001713120FEF781FA00E03DE04FF401719A
:103150003220FEF77AFA40F202513320FEF775FA78
:1031600040F207513420FEF770FA4FF40171352018
:10317000FEF76BFA4FF401713620FEF766FA40F263
:1031800002513720FEF761FA40F202313A20FEF791
:103190005CFA40F202313B20FEF757FA002123206F
:1031A000FEF753FA00212420FEF74FFA4FF40041B6
:1031B0002520FEF74AFA00214F20FEF746FA0021AB
:1031C0004E20FEF742FA79E132488088A0F58A4124
:1031D00031397ED101210020FEF737FA0A20FDF7B0
:1031E00020FD41F228611020FEF72FFA0E21122057
:1031F000FEF72BFA40F639211320FEF726FA0A20B3
:10320000FDF70FFD40211120FEF71FFA5021152078
:10321000FEF71BFA0A20FDF704FD1E211220FEF71F
:1032200014FA0A20FDF7FDFC4FF4B1511020FEF70F
:103230000CFA42F639211320FEF707FA0A20FDF7AF
:10324000F0FC4FF480710120FEF7FFF94FF440715C
:103250000220FEF7FAF941F238010320FEF7F5F9F2
:1032600040F202210820FEF7F0F908210A20FEF7BB
:10327000ECF900213020FEF7E8F940F2024131205C
:10328000FEF7E3F94FF483713220FEF7DEF940F2E6
:10329000035101E0AC0100203320FEF7D6F94FF4D2
:1032A00082713420FEF7D1F940F201313520FEF76A
:1032B000CCF940F207713620FEF7C7F940F205312C
:1032C0003720FEF7C2F94FF402713820FEF7BDF93E
:1032D00000E03EE040F60B713920FEF7B6F902211E
:1032E0004120FEF7B2F94FF41C516020FEF7ADF912
:1032F00001216120FEF7A9F94FF404719020FEF737
:10330000A4F94FF485719220FEF79FF904219320D0
:10331000FEF79BF94FF48071A020FEF796F901218A
:103320000720FEF792F921210720FEF78EF92321CD
:103330000720FEF78AF933210720FEF786F940F2CD
:1033400033110720FEF781F90021A020FEF77DF957
:10335000B4E0FA488088A0F58A413539F8D13021A7
:103360001520FEF772F910219A20FEF76EF9202140
:103370001120FEF76AF943F228411020FEF765F9A3
:1033800002211220FEF761F941F238011320FEF705
:103390005CF92820FDF745FC12210846FEF755F997
:1033A0002820FDF73EFC43F220411020FEF74DF9A6
:1033B00043F238011320FEF748F94620FDF731FCAF
:1033C00000213020FEF741F940F202413120FEF7A2
:1033D0003CF940F207313220FEF737F94FF44171E2
:1033E0003320FEF732F904213420FEF72EF940F2A3
:1033F00001413520FEF729F940F207713620FEF72A
:1034000024F940F205313720FEF71FF94FF4C2616D
:103410003820FEF71AF94FF4C2613920FEF715F98A
:103420004FF480710120FEF710F94FF44071022033
:10343000FEF70BF941F230010320FEF706F940F6E2
:1034400008010820FEF701F908210A20FEF7FDF81F
:103450004FF41C516020FEF7F8F801216120FEF7BF
:10346000F4F84FF49F719020FEF7EFF84FF480715D
:103470009220FEF7EAF84FF480719320FEF7E5F80A
:103480004FF44051A020FEF7E0F81021A320FEF7F2
:10349000DCF801210720FEF7D8F821210720FEF7EC
:1034A000D4F823210720FEF7D0F833210720FEF7B8
:1034B000CCF840F233110720FEF7C7F80020FEF7E2
:1034C00018FB01209E4908604FF6FF70FEF788FB4D
:1034D00010BD2DE9F04F04460D4616461F46DDF897
:1034E00024804FF0000B301B401C1FFA80FBA946C4
:1034F00015E049462046FEF7D7F8FEF7B8F84FF03A
:10350000000A06E04046FEF798F80AF101001FFAAB
:1035100080FADA45F6DB09F101001FFA80F9B945B6
:10352000E7DDBDE8F08F2DE9F84F04460D4616465D
:103530001F46DDF82880301B401C80B20090781BAD
:10354000401C1FFA80F94FF0000A1BE005EB0A004F
:1035500081B22046FEF7A8F8FEF789F84FF0000B7D
:1035600009E00AFB09B038F81000764908800BF131
:1035700001001FFA80FB00988345F2DB0AF101008D
:103580001FFA80FACA45E1DBBDE8F88F2DE9FF4F4D
:1035900085B004460D461646002004900390A6EB25
:1035A00004080898A0EB0509A3460095B8F1000FA0
:1035B00002DD012001900AE0B8F1000F02D10020E5
:1035C000019004E04FF0FF300190C8F10008B9F11C
:1035D000000F02DD4FF0010A09E0B9F1000F02D13E
:1035E0004FF0000A03E04FF0FF3AC9F10009C84567
:1035F00002DDCDF8088001E0CDF80890002722E038
:10360000009881B21FFA8BF0FEF723FA0498404429
:10361000049003984844039002990498884205DD79
:1036200004990298081A049001988344DDE9021075
:10363000884206DDDDE90210401A039000985044EC
:103640000090781C87B20298401C8742D8DD09B0F0
:10365000BDE8F08FF0B504460D4616461F462B46D2
:10366000324629462046FFF791FF3B46224629462F
:103670002046FFF78BFF3B46324639462046FFF790
:1036800085FF3B46324629463046FFF77FFFF0BDB7
:103690002DE9F04304460D4616460027B0460320A8
:1036A000A0EB460946E0A5EB080291B2E21990B200
:1036B000FEF7CFF9EA1B91B204EB080290B2FEF7D5
:1036C000C8F9EA1991B204EB080290B2FEF7C1F909
:1036D00005EB080291B2E21990B2FEF7BAF905EBD8
:1036E000080291B2E21B90B2FEF7B3F9EA1991B267
:1036F000A4EB080290B2FEF7ACF9A5EB080291B278
:10370000E21B90B2FEF7A5F9EA1B91B2A4EB080206
:1037100090B2FEF79EF97F1CB9F1000F03DAB800F2
:10372000801D814406E0A7EB080080000A30814438
:10373000A8F101084745B6DDBDE8F083AC010020E3
:10374000808121420008006C2DE9F84F04460D46A7
:1037500016461F460095CC48B0F800B0A6F12000F0
:10376000C6B20A98002850D182464BE00C2F07D1F0
:1037700006EB4600C54901EB800010F80A8004E022
:10378000C34800EB061010F80A804FF0000931E042
:1037900018F0800F03D0BC48A0F800B003E0BD488B
:1037A0000088B949088029462046FEF752F94FEAB9
:1037B00048604FEA1068681C85B2B7480088A0428C
:1037C00004DCB148A0F800B0BDE8F88F0098281AD2
:1037D000B8420BD1009D601C84B2AF480088A04263
:1037E00003DCA948A0F800B0EEE706E009F101000B
:1037F00000F0FF09B9F1080FCADB00BF0AF10100B0
:1038000000F0FF0ABA45B1DB47E04FF0000A42E0A2
:103810000C2F07D106EB46009C4901EB800010F805
:103820000A8004E09A4800EB061010F80A804FF076
:10383000000928E018F0800F03D029462046FEF743
:1038400008F94FEA48604FEA1068681C85B2924850
:103850004088A04203DC8C48A0F800B0B4E7009890
:10386000281AB8420BD1009D601C84B28A48008897
:10387000A04203DC8448A0F800B0A5E706E009F107
:10388000010000F0FF09B9F1080FD3DB00BF0AF116
:10389000010000F0FF0ABA45BADB7B48A0F800B08F
:1038A00092E710B50246012000E050430B00A1F161
:1038B0000104E1B2F9D110BD2DE9FF4F81B00446FA
:1038C00015461E460E9F4FF0000AD0463EE0A6EB7E
:1038D0000800401EC1B20A20FFF7E3FFB5FBF0F07D
:1038E0000A21B0FBF1F201FB120000F0FF09BAF16E
:1038F000000F16D1701E404513DDB9F1000F0ED137
:103900000023BB4607EBD771491001FB084188B281
:1039100000933B4620220299FFF716FF12E04FF07A
:10392000010A0023BB4607EBD771491001FB084190
:1039300088B200933B4609F13001CAB20299FFF701
:1039400003FF00BF08F1010000F0FF08B045BEDB37
:1039500005B0BDE8F08F2DE9FF4F82B00446154653
:103960001E46DDE90F7800200190814652E0A6EB6B
:103970000900401EC1B20A20FFF793FFB5FBF0F02B
:103980000A21B0FBF1F201FB120000F0FF0A0198DE
:1039900050BB701E484527DDBAF1000F22D118F048
:1039A000800F0FD008F00103BB4607EBD771491019
:1039B00001FB094188B200933B4630220399FFF78F
:1039C000C3FE0EE008F00103BB4607EBD7714910B8
:1039D00001FB094188B200933B4620220399FFF77F
:1039E000B3FE13E00120019008F00103BB4607EB92
:1039F000D771491001FB094188B200933B460AF197
:103A00003001CAB20399FFF79FFE00BF09F1010020
:103A100000F0FF09B145AADB06B0BDE8F08F2DE943
:103A2000F84704460D4616461F46DDE9098904F0AD
:103A3000FF0A301986B2781987B219E0B44203DB65
:103A4000544605EB080085B2BD4200DB18E00023B8
:103A5000009399F80020434629462046FFF774FE5C
:103A6000404608EBD87104EB61018CB209F1010901
:103A700099F800007E2803DC99F800002028DDDAA0
:103A800000BFBDE8F8870000180000200E3F0008C6
:103A9000824300081A000020AC01002039488069E8
:103AA00040F00800374988610846806940F004000A
:103AB00088610846806940F04000886132480068AB
:103AC00080B23249C1F800082F48006830490843E5
:103AD0002E49C1F800080846D0F80C08C1F80C08B7
:103AE0000846D0F8040820F47F20C1F804080846EE
:103AF000D0F8040840F44C30C1F804080846D0F867
:103B00000C08C1F80C080846D0F8000C20F470002E
:103B1000C1F8000C0846D0F8000C40F44010C1F881
:103B2000000C0846D0F80C0C40F02000C1F80C0C3A
:103B30000846D0F8040C20F07F60C1F8040C084659
:103B4000D0F8040C40F04C70C1F8040C0846D0F8D2
:103B50000C0CC1F80C0C0F48D0F8000820F47000D1
:103B60000C49C1F800080846D0F8000840F440109D
:103B7000C1F800080846D0F80C0840F02000C1F851
:103B80000C0870470010024000080140000001408E
:103B900000003333001001400020374908603749E6
:103BA000C1F89401344908310860091D08603249A0
:103BB0001C310860091D0860314908603149C1F8AD
:103BC000B801704710B529B92F4B1A802A4B1B1D1D
:103BD000186016E0012905D12C4B1A80264B0C33B6
:103BE00018600EE0022905D1294B1A80224B1C33A4
:103BF000186006E0032904D1264B1A801E4B20339F
:103C0000186000BF234B1B88002BFBD1204B1B8867
:103C1000002BF7D11D4B1B88002BF3D11A4B1B88AF
:103C2000002BEFD121B101290DD0022921D115E0BE
:103C30000023194C238000BF174B1B1F1B8813F058
:103C4000400FF9D016E00123134C238000BF124B24
:103C50001B1F1B8813F0400FF9D00BE002230E4C02
:103C6000238000BF0C4B1B1F1B8813F0400FF9D0A3
:103C700000E000BF00BF10BD9001214200002142C2
:103C8000B4812142008021420E000020100000205B
:103C9000120000201400002004380140D2B201E0DC
:103CA00000F8012B491EFBD270470022F6E710B541
:103CB00004460846114602462046FFF7EFFF20461D
:103CC00010BDF0B4144620F0004621F0004100F091
:103CD00000428E4205D230460E4601460CB182F0BB
:103CE000004219B946EA0200F0BC7047C6F3C75358
:103CF000C1F3C7501D1AC6F3160040F40000202D72
:103D000014DAC1F3160141F40001002C21FA05F484
:103D100002D0A0EB040000E02044C5F1200401FA29
:103D200004F108D0494206D0401E04E014B14FF01F
:103D3000FF31F9E70121F0BC00F0A2B890EA0102DE
:103D400001D5012200E00022BBE790EA010201D583
:103D5000002200E00122B4E703460846594001D59D
:103D6000002200E001221946ABE780EA010210B50B
:103D700002F00042400001D04B0001D1002010BDF4
:103D80004FEA106101EB1361C0F35600C3F3560311
:103D900040F4000043F40003A0FB03307F394FEAF6
:103DA00000401C0400D0401C50EA134001D44000E5
:103DB000491EC3B20C0604EBD010401C4008802BF7
:103DC00001D120F00100002900DA0020104310BDCD
:103DD000F0B480EA010230F0004302F0004221F02A
:103DE000004000D010B9F0BC00207047C0F3C755A8
:103DF000C3F31601C3F3C756731BC0F3160040F498
:103E000000047E3341F400014FF080750020A14290
:103E100001D3091B28436D084FEA4101F7D151B185
:103E2000A14202D14FF0004105E002D24FF0010162
:103E300001E06FF00101F0BC00F022B896230022EF
:103E4000114600F01DB820F00040C10DC0F316006F
:103E500040F400007F2901DA00207047962903DC36
:103E6000C1F19601C84070479639884070470029D3
:103E700005DA401CB1F1004F01D120F0010070477C
:103E800030B450EA01040BD130BC0020704701F07F
:103E9000010545EA510141EAC07140085B1C01E09F
:103EA0004FF08074A042F2D24FF4000404E04000CE
:103EB00040EAD17049005B1EA042F8D300EBC3502A
:103EC000A0F5000030BC1044D1E70000064C074DBF
:103ED00006E0E06840F0010394E8070098471034DA
:103EE000AC42F6D3FCF728F974490008944900085D
:103EF00002E008C8121F08C1002AFAD170477047B3
:103F0000002001E001C1121F002AFBD17047000010
:103F100000000000000000000000000000003F4022
:103F200000000000000000003000400030004000B1
:103F3000000009000BC03D000BC03D00090018C087
:103F400024407FE0224031800000180024C01B0084
:103F50000D803240018003801C4027401C800740B8
:103F600000401000600000000000000000000000A1
:103F7000000000001F802040402000004020204022
:103F80001F8000000000090006001F8006000900D5
:103F90000000040004003F80040004000000001042
:103FA00000600000000000000000040004000400A5
:103FB00004000400000000000040000000000000B9
:103FC0000000002001C006003800400000001F80F3
:103FD0002040204020401F800000000010403FC0D3
:103FE00000400000000018C021402240244018403A
:103FF000000010802040244024401B80000002006C
:104000000D0011003FC0014000003C8024402440CE
:104010002440238000001F8024402440344003803B
:1040200000003000200027C03800200000001B8066
:104030002440244024401B8000001C0022C0224059
:1040400022401F8000000000000008400000000027
:1040500000000000000004600000000000000000FC
:1040600004000A00110020804040090009000900F6
:1040700009000900000000004040208011000A00F3
:1040800004001800200023402400180000001F80B6
:104090002040274029401F400000004007C0390051
:1040A0000F0001C0004020403FC0244024401B803E
:1040B00000001F8020402040204030800000204031
:1040C0003FC0204020401F80000020403FC02440CF
:1040D0002E4030C0000020403FC024402E00300061
:1040E00000000F001080204022403380020020405A
:1040F0003FC0040004003FC02040204020403FC09B
:104100002040204000000060202020203FC02000F0
:10411000200020403FC024400B0030C02040204001
:104120003FC020400040004000C03FC03C0003C0F2
:104130003C003FC0000020403FC00C4023003FC077
:1041400020001F802040204020401F800000204091
:104150003FC024402400180000001F80214021405F
:1041600020E01FA0000020403FC02440260019C0CE
:10417000004018C02440244022403180000030001C
:1041800020403FC020403000000020003F80004021
:1041900000403F80200020003E0001C007003800A2
:1041A0002000380007C03C0007C038000000204055
:1041B00039C0060039C0204000002000384007C048
:1041C000384020000000304021C02640384020C048
:1041D0000000000000007FE04020402000000000C0
:1041E00070000C00038000400000000040204020D0
:1041F0007FE00000000000002000400020000000E0
:10420000000000100010001000100010001000004E
:104210000000400000000000000000000280054097
:10422000054003C0004020003FC00440044003801C
:10423000000000000380044004400640000000002D
:104240000380044024403FC000400000038005403C
:10425000054003400000000004401FC024402440EB
:104260002000000002E005500550065004202040C8
:104270003FC00440040003C000400000044027C0C9
:1042800000400000000000100010041027E00000B3
:10429000000020403FC00140070004C0044020400F
:1042A00020403FC000400040000007C0040007C09D
:1042B000040003C00000044007C00440040003C021
:1042C000004000000380044004400380000004100C
:1042D00007F0045004400380000000000380044005
:1042E000045007F00010044007C00240040004001E
:1042F0000000000006400540054004C0000000002A
:1043000004001F80044000400000040007800040BB
:10431000044007C000400400070004C001800600FC
:104320000400060001C0070001C0060000000440B0
:1043300006C0010006C0044000000410071004E09D
:104340000180060004000000044005C0064004404F
:1043500000000000000004007BE04020000000009E
:1043600000000000FFF000000000000040207BE0A3
:1043700004000000000040008000400020002000F9
:1043800040000000000000000000000000000000ED
:1043900000000000000000001FCC000C0000000026
:1043A00000000000080030006000080030006000DD
:1043B0000000022003FC1E20022003FC1E2002201D
:1043C000000000000E1811043FFF10840C7800005C
:1043D00000000F0010840F3800C0077818840078A0
:1043E000000000780F8410C411240E9800E40084AB
:1043F00000080800680070000000000000000000D5
:10440000000000000000000007E01818200440022F
:104410000000000040022004181807E0000000001F
:1044200000000240024001800FF001800240024083
:1044300000000080008000800FF800800080008075
:1044400000000001000D000E000000000000000050
:10445000000000000080008000800080008000805C
:1044600000800000000C000C0000000000000000B4
:10447000000000000006001800600180060018001F
:104480002000000007F0080810041004080807F0D6
:1044900000000000080408041FFC000400040000E1
:1044A000000000000E0C10141024104411840E0C97
:1044B000000000000C1810041104110412880C7084
:1044C0000000000000E00320042408241FFC002456
:1044D000000000001F98108411041104108810704F
:1044E0000000000007F0088811041104188800700B
:1044F000000000001C00100010FC13001C00100045
:10450000000000000E3811441084108411440E384D
:10451000000000000700088C10441044088807F0D1
:104520000000000000000000030C030C000000006D
:104530000000000000000001010600000000000073
:104540000000000000800140022004100808100450
:10455000000002200220022002200220022002206D
:104560000000000010040808041002200140008030
:10457000000000000E001200100C106C10800F00E4
:10458000000003E00C1813E4142417C4082807D013
:1045900000000004003C03C41C40074000E4001C71
:1045A000000410041FFC1104110411040E88007093
:1045B000000003E00C1810041004100410081C1074
:1045C000000010041FFC100410041004080807F079
:1045D000000010041FFC1104110417C41004081873
:1045E000000010041FFC1104110017C01000080087
:1045F000000003E00C181004100410441C78004064
:10460000000010041FFC10840080008010841FFC38
:1046100010040000100410041FFC1004100400001B
:10462000000000030001100110011FFE1000100027
:10463000000010041FFC110403801464181C1004F3
:10464000000010041FFC1004000400040004000C0F
:10465000000010041FFC1F0000FC1F001FFC1004C2
:10466000000010041FFC0C04030000E010181FFCE5
:10467000100007F00808100410041004080807F0E0
:10468000000010041FFC10841080108010800F00A8
:10469000000007F0081810241024101C080A07F264
:1046A000000010041FFC1104110011C011300E0C89
:1046B000000400000E1C11041084108410441C38E7
:1046C00000001800100010041FFC10041000180057
:1046D000000010001FF810040004000410041FF86C
:1046E000100010001E0011E0001C007013801C0060
:1046F00010001FC0103C00E01F0000E0103C1FC075
:1047000000001004180C163401C001C01634180C37
:10471000100410001C00130400FC13041C00100003
:1047200000000804101C1064108413041C041018EA
:1047300000000000000000007FFE40024002400236
:104740000000000030000C0003800060001C00032B
:10475000000000004002400240027FFE0000000016
:104760000000000000002000400040004000200049
:104770000000000100010001000100010001000132
:104780000001000040004000200000000000000088
:10479000000000000098012401440144014400FC91
:1047A000000410001FFC0088010401040088007050
:1047B000000000000070008801040104010400886A
:1047C00000000000007000880104010411081FFCB3
:1047D0000004000000F8014401440144014400C801
:1047E00000000000010401040FFC11041104110079
:1047F0001800000000D601290129012901C901067C
:10480000000010041FFC008401000100010400FCF2
:10481000000400000104190419FC00040004000055
:1048200000000000000300010101190119FE000051
:10483000000010041FFC0024004001B4010C01041E
:1048400000000000100410041FFC0004000400001D
:104850000000010401FC0104010001FC010401004D
:1048600000FC010401FC008401000100010400FCC3
:104870000004000000F8010401040104010400F830
:104880000000010101FF008501040104008800709F
:10489000000000000070008801040104010501FF10
:1048A00000010104010401FC0084010401000180F5
:1048B0000000000000CC01240124012401240198FF
:1048C000000000000100010007F8010401040000DD
:1048D0000000010001F8000400040004010801FCCC
:1048E0000004010001800170000C001001600180D3
:1048F000010001F0010C003001C00030010C01F09A
:10490000010000000104018C00740170018C01049D
:104910000000010101810171000E00180160018099
:10492000010000000184010C013401440184010CE8
:104930000000000000000000000001003EFC4002FA
:1049400040020000000000000000FFFF0000000027
:1049500000000000400240023EFC01000000000098
:104960000000000060008000800040004000200047
:104970002000000094490008000000201C000000F6
:10498000F03E0008B04900081C0000209C0900000F
:10499000003F0008000000000000000000000000D0
:1049A0000100000000000000000000000000FFFF08
:0400000508000131BD
:00000001FF
